:020000040800F2
:10000000FF4F002059200008FD02000801030008EE
:1000100005030008090300080D03000800000000A4
:1000200000000000000000000000000011030008B4
:100030001503000800000000190300081D03000854
:10004000A1200008A1200008A1200008A12000088C
:10005000A1200008A1200008A1200008A12000087C
:10006000A1200008A1200008A1200008A12000086C
:10007000A1200008A1200008A1200008A12000085C
:10008000A1200008A1200008A1200008A12000084C
:10009000A1200008A1200008A1200008A12000083C
:1000A000A1200008A1200008A1200008A12000082C
:1000B000A1200008A1200008A1200008A12000081C
:1000C000A1200008A1200008A1200008A12000080C
:1000D000A1200008D1020008A1200008A1200008EA
:1000E000A1200008A1200008A120000800000000B5
:1000F0000000000000000000000000000000000000
:0C01000000000000000000005FF808F1A3
:10010C0010B5054C237833B9044B13B10448AFF345
:10011C0000800123237010BDD401002000000000DA
:10012C009C210008084B10B51BB108490848AFF3D7
:10013C0000800848036803B910BD074B002BFBD0A7
:10014C00BDE81040184700BF00000000D801002097
:10015C009C210008D401002000000000704700BF63
:10016C0007E00130054A5360044B1B6813F0400F45
:10017C00FAD00378002BF4D1704700BF003801404F
:10018C0010B50A4C0A4B236060600023A360E36047
:10019C002361A3610C236361204601F091F80122D5
:1001AC000449204601F0BEF810BD00BF641D0020BC
:1001BC0000380140A41D00200268224B9A423FD116
:1001CC0030B589B003F558439A6942F004029A613C
:1001DC009A6902F004020192019A9A6942F48042EF
:1001EC009A619A6902F480420292029A9A6942F0E8
:1001FC0001029A619B6903F001030393039B4FF483
:10020C00007304930223059301230693032407949C
:10021C000D4D04A9284600F0D3FA4FF480630493E3
:10022C000023059304A9284600F0CAFA252001F002
:10023C00B5FE22462146252001F07EFE09B030BDD8
:10024C00704700BF00380140000801400268194B9C
:10025C009A422DD1184B1B8813F4004F28D103F46C
:10026C00804292B272B1154A12780A2A03D0002247
:10027C00114B1A8070476FEA43436FEA53430E4A9F
:10028C00138070470D4A12780D2A04D143F4804331
:10029C00094A13807047C3F30D01094842540133D6
:1002AC009BB2054A1380C72B02D90022024B1A803D
:1002BC00704700BF00380140F0010020A41D002051
:1002CC00A81D002008B5084801F0BCF8064801F04C
:1002DC004FF92028FAD101220449034801F022F8F1
:1002EC000028F8D108BD00BF641D0020A41D00200B
:1002FC00704700BFFEE700BFFEE700BFFEE700BF90
:10030C00FEE700BF704700BF704700BF704700BFDB
:10031C0008B500F0A5FE08BD00B591B00123069309
:10032C004FF4803307930022089202220D920E9311
:10033C000F9006A800F04CFB00B1FEE70F230193D1
:10034C0002210291002303934FF4806204920593DF
:10035C0001A800F075FD00B1FEE711B05DF804FBDB
:10036C0030B589B0022304934FF40043069304A8DC
:10037C0001F054FA0C4C0D4B23600023A3600125B3
:10038C00E56063614FF46022E261636025612046A1
:10039C0001F03AFD019502950523039301A920462E
:1003AC0001F08CFB09B030BDD81E002000240140A8
:1003BC0030B589B01F4B9A6942F400729A619A6900
:1003CC0002F400720192019A9A6942F004029A6155
:1003DC009A6902F004020292029A5A6942F00102EE
:1003EC005A615B6903F001030393039B022304939B
:1003FC00032305930025069504A90F4800F0E0F9A6
:10040C000E4C0F4B23606560A5608023E3604FF4B6
:10041C00807323614FF4806363612023A3614FF4E5
:10042C000053E361204601F037F9064B1C6263620E
:10043C0009B030BD0010024000080140081F002028
:10044C0008000240D81E002070B586B00E4B9A6989
:10045C0042F010029A619B6903F010030193019B17
:10046C004FF400560296012403940494032305933D
:10047C00064D02A9284600F0A3F92246314628462B
:10048C0000F08AFA06B070BD001002400010014066
:10049C0010B50446042001F0A3FD014B1C6010BDF7
:1004AC00F401002030B40C4A55680C4B1B6800FB5F
:1004BC0003F0936800211A46074B9B689A42FBD0C5
:1004CC0002D9D21A114402E0EC1A2244114481429E
:1004DC00F1D330BC704700BF10E000E0F401002005
:1004EC0038B50546002404E04FF47A70FFF7DAFFC4
:1004FC000134AC42F8D338BD10B487B00021134B93
:10050C00A3FB0023DB081A4603EB83035C00031BED
:10051C0006A80844303300F8143C0131C9B2104627
:10052C00002AECD1002309E0CA1A013A06A80244B9
:10053C0012F8140C064AD0540133DBB28B42F3D3BD
:10054C0003480022C25407B010BC7047CDCCCCCCB1
:10055C00B00D002003680A6802600B60704700BF92
:10056C002DE9F84305460C4616464F1E00EB820853
:10057C0050F822900BE005EB840055F82430994597
:10058C0004DB013705EB8701FFF7E4FF0134B442CC
:10059C00F1DB013705EB87014046FFF7DBFF3846FF
:1005AC00BDE8F883914212DAF8B514460D460646BA
:1005BC00FFF7D6FF0746421E29463046FFF7F2FFEB
:1005CC002246791C3046FFF7EDFF0020F8BD0020D5
:1005DC00704700BF70B500F031FD4FF4E010FFF72D
:1005EC009BFE4820FFF754FF4FF41650FFF7C8FD51
:1005FC00FFF72AFFFFF7B4FE5F4C204600F0BEFF6A
:10060C004FF4FA625D49204601F034FB4FF4FA7066
:10061C00FFF766FF4FF4FA70FFF762FF5848FFF7D9
:10062C009FFD0024012C55D11AE0544A32F81310C6
:10063C00544A22F81310013300E0002340F2DB523D
:10064C009342F2DD4F4E00213046FFF7ABFFB6F878
:10065C00AE3B72899B1A5A2B00DD0135013401E047
:10066C0000242546092CE8DD464BB3F8AE4B5B89DC
:10067C001C446410A4F59673B3F5AF6F1ED94248B1
:10068C00FFF76EFD3220FFF72BFF4048FFF768FDA8
:10069C002046FFF731FFFFF763FD3D48FFF760FD94
:1006AC003220FFF71DFF3B48FFF75AFD3220FFF7C2
:1006BC0017FF3948FFF754FD002433E0012D04DD0A
:1006CC003648FFF74DFD00242CE03548FFF748FD78
:1006DC00002427E0022C25D107E0284A32F8131019
:1006EC00284A22F81310013300E0002340F2DB52B9
:1006FC009342F2DD234D00212846FFF753FF294892
:10070C00FFF72EFDB5F8AE0B6B8918444010FFF7C0
:10071C00F3FEFFF725FD1E48FFF722FD4FF4FA709C
:10072C00FFF7DEFE204B1B8803F44042B2F5404F2E
:10073C007FF478AFC3F30D031C480022C2541A4B4C
:10074C001A801B4901F0CEFC38B91A48FFF708FD96
:10075C006420FFF7C5FE012464E71749134801F034
:10076C00C1FC00287FF45EAF1448FFF7F9FC64204D
:10077C00FFF7B6FE022455E7D81E0020C40D00205A
:10078C00DC210008F80100203C2400088424000827
:10079C0054250008A0240008E024000810250008B7
:1007AC003025000858250008F0010020A81D002065
:1007BC00802500088825000898250008A025000839
:1007CC00F0B583B000263446D5E00122A2400B6878
:1007DC0013409A4240F0CE804D68122D2DD00BD88C
:1007EC00022D27D003D85DB3012D1ED035E0032D8B
:1007FC0030D0112D1BD030E0614FBD4220D008D835
:10080C00A7F58017BD421BD007F58037BD4224D118
:10081C0016E05C4FBD4213D007F58037BD420FD0B8
:10082C00A7F58017BD4218D10AE0CE6815E0CE6856
:10083C00043612E0CE6808360FE0CE680C360CE0B9
:10084C008D684DB1012D02D10261082605E042618F
:10085C00082602E0002600E00426FF2B01D886467D
:10086C0001E000F1040EFF2B01D8A20002E0A4F17C
:10087C0008029200DEF800700F25954027EA050566
:10088C0006FA02F22A43CEF800204A6812F0805F82
:10089C0070D03D4A956945F001059561926902F069
:1008AC0001020192019AA708BD1C384A52F8255042
:1008BC0004F0030292004FF00F0E0EFA02FE25EA2E
:1008CC000E0E334DA8420DD005F58065A8420BD015
:1008DC0005F58065A84209D005F58065A84207D1C9
:1008EC00032506E0002504E0012502E0022500E0D6
:1008FC00042505FA02F24EEA02020237234D45F8AE
:10090C0027204A6812F4803F05D005F580652A68D7
:10091C001A432A6004E01F4D2A6822EA03022A6067
:10092C004A6812F4003F04D01A4D6A681A436A6090
:10093C0004E0184D6A6822EA03026A604A6812F4FD
:10094C00801F04D0134DAA681A43AA6004E0114D0D
:10095C00AA6822EA0302AA604A6812F4001F04D0B3
:10096C000C4DEA681343EB6004E00A4DEA6822EA96
:10097C000303EB6001340F2C7FF627AF03B0F0BDFF
:10098C000000211000003110001002400000014056
:10099C0000080140000401400AB1016170470904DC
:1009AC000161704782B0084B1B68084AA2FB032305
:1009BC005B0A00FB03F0019000BF019B5A1E0192E1
:1009CC00002BF9D102B0704700000020D34D62100B
:1009DC0070B582B00446036813F0010F6BD0A84BBE
:1009EC005B6803F00C03042B0AD0A54B5B6803F087
:1009FC000C03082B0DD1A24B5B6813F4803F08D07D
:100A0C009F4B1B6813F4003F55D06368002B52D1E9
:100A1C00B8E16368B3F5803F05D1994A136843F494
:100A2C008033136026E063B903F1804303F504338C
:100A3C001A6822F480321A601A6822F480221A6032
:100A4C0018E0B3F5A02F0CD103F18043A3F53C3390
:100A5C001A6842F480221A601A6842F480321A60D2
:100A6C0008E0874B1A6822F480321A601A6822F464
:100A7C0080221A6063687BB100F0FAFA054605E043
:100A8C0000F0F6FA401B642800F27E817C4B1B6858
:100A9C0013F4003FF4D00EE000F0EAFA054605E04E
:100AAC0000F0E6FA401B642800F27081744B1B685E
:100ABC0013F4003FF4D1236813F0020F50D0704BA5
:100ACC005B6813F00C0F0AD06D4B5B6803F00C03E2
:100ADC00082B16D16A4B5B6813F4803F11D1684B1D
:100AEC001B6813F0020F03D02369012B40F05081D7
:100AFC00634A136823F0F803616943EAC103136086
:100B0C002EE02369D3B101225E4B1A6000F0B0FADB
:100B1C00054605E000F0ACFA401B022800F23A81D1
:100B2C00574B1B6813F0020FF4D0554A136823F08F
:100B3C00F803616943EAC103136011E00022514BD1
:100B4C001A6000F095FA054605E000F091FA401B9A
:100B5C00022800F221814A4B1B6813F0020FF4D1DA
:100B6C00236813F0080F29D0A369ABB10122464BBF
:100B7C001A6000F07DFA054605E000F079FA401B9A
:100B8C00022800F20B813E4B5B6A13F0020FF4D08B
:100B9C000120FFF707FF11E000223B4B1A6000F029
:100BAC0067FA054605E000F063FA401B022800F2E4
:100BBC00F780334B5B6A13F0020FF4D1236813F008
:100BCC00040F00F089802E4BDB6913F0805F0BD192
:100BDC002B4BDA6942F08052DA61DB6903F0805307
:100BEC000193019B012500E00025284B1B6813F4A1
:100BFC00807F13D1254A136843F48073136000F08F
:100C0C0037FA064605E000F033FA801B642800F240
:100C1C00C9801E4B1B6813F4807FF4D0E368012B52
:100C2C0005D1174A136A43F00103136222E063B93A
:100C3C0003F1804303F504331A6A22F001021A62AD
:100C4C001A6A22F004021A6214E0052B09D10C4B2B
:100C5C001A6A42F004021A621A6A42F001021A621B
:100C6C0008E0074B1A6A22F001021A621A6A22F093
:100C7C0004021A62E368CBB100F0FAF906460FE001
:100C8C0000100240000042428004424200700040CA
:100C9C0000F0EEF9801B41F28833984200F2848018
:100CAC00494B1B6A13F0020FF2D00FE000F0E0F991
:100CBC00064606E000F0DCF9801B41F288339842CE
:100CCC0074D8414B1B6A13F0020FF3D125B13E4A85
:100CDC00D36923F08053D361E369002B68D03A4A7F
:100CEC00526802F00C02082A64D0022B37D1002281
:100CFC00364B1A6000F0BCF9054604E000F0B8F978
:100D0C00401B022858D8304B1B6813F0007FF5D1DC
:100D1C00236AB3F5803F06D12B494B6823F400328C
:100D2C00A36813434B602848436823F47411236A67
:100D3C00626A13430B4343600122244B1A6000F098
:100D4C0097F9044604E000F093F9001B022835D80B
:100D5C001D4B1B6813F0007FF5D0002031E0002202
:100D6C001A4B1A6000F084F9044604E000F080F994
:100D7C00001B022824D8144B1B6813F0007FF5D1FC
:100D8C0000201EE001201CE003201AE0032018E0E4
:100D9C00012016E0032014E0032012E0032010E0F1
:100DAC0003200EE003200CE003200AE0032008E0FF
:100DBC00002006E0012004E0032002E0032000E014
:100DCC00032002B070BD00BF001002406000424220
:100DDC0030B486B0164D02AC28686968AA68EB6816
:100DEC000FC42B8AADF80430124B5B6803F00C0275
:100DFC00082A19D1C3F3834206A90A4412F8102C0D
:100E0C0013F4803F0CD00B4B5B68C3F340430B4493
:100E1C0013F8140C084BB3FBF0F000FB02F004E0E9
:100E2C00064800FB02F000E0034806B030BC7047F7
:100E3C00B42100080010024000127A0000093D00A5
:100E4C0070B55C4B1B6803F007038B420BD2594AFD
:100E5C00136823F007030B431360136803F00703B5
:100E6C00994240F09780036813F0020F06D0524C61
:100E7C00636823F0F0028368134363600D460446F5
:100E8C00036813F0010F4DD04268012A05D14A4B7B
:100E9C001B6813F4003F0DD17EE0022A05D1464BAE
:100EAC001B6813F0007F05D178E0434B1B6813F0EF
:100EBC00020F75D040494B6823F0030313434B607A
:100ECC0000F0D6F806466368012B0ED106E000F060
:100EDC00CFF8801B41F28833984263D8364B5B685D
:100EEC0003F00C03042BF2D11CE0022B15D106E00D
:100EFC0000F0BEF8801B41F28833984254D82E4B38
:100F0C005B6803F00C03082BF2D10BE000F0B0F897
:100F1C00801B41F28833984248D8274B5B6813F00A
:100F2C000C0FF3D1234B1B6803F007039D420AD22D
:100F3C00204A136823F007032B431360136803F054
:100F4C0007039D4234D1236813F0040F06D01A49CD
:100F5C004B6823F4E062E36813434B60236813F09F
:100F6C00080F07D0144A536823F46053216943EAED
:100F7C00C1035360FFF72CFF0F4B5B68C3F30313E4
:100F8C000E4AD35CD8400E4B18600F2000F040F88E
:100F9C00002070BD012070BD012070BD012070BD0E
:100FAC00012070BD032070BD032070BD032070BDF7
:100FBC00012070BD0020024000100240C82500082E
:100FCC0000000020014B1868704700BF0000002093
:100FDC0008B5FFF7F7FF044B5B68C3F30223034A22
:100FEC00D35CD84008BD00BF00100240D8250008D3
:100FFC0008B5FFF7E7FF044B5B68C3F3C223034A52
:10100C00D35CD84008BD00BF00100240D8250008B2
:10101C0010B50446074B1B680748A0FB033080093A
:10102C0000F0C8FF002221464FF0FF3000F084FF93
:10103C00002010BD00000020D34D621008B5074AF7
:10104C00136843F010031360032000F063FF0F20BC
:10105C00FFF7DEFFFFF782F8002008BD00200240FA
:10106C00024A136801331360704700BF4C1F002005
:10107C00014B1868704700BF4C1F00200268D368F2
:10108C0023F49073D3600268536923F00103536116
:10109C00202380F83A30704790F83930DBB2212B9E
:1010AC002BD18368B3F5805F0FD1036A02681B886C
:1010BC00C3F30803536003691BB9036A0233036269
:1010CC0009E0036A0133036205E00268036A591CF4
:1010DC0001621B785360C38C9BB2013B9BB2C384EF
:1010EC006BB90268D36823F08003D3600268D368BD
:1010FC0043F04003D360002070470220704700206B
:10110C00704700BF2DE9F843814601680B6923F451
:10111C004052C36813430B618168036919434369E7
:10112C0019430068C26822F4B05323F00C030B433C
:10113C00C360D9F800104B6923F44072D9F8183009
:10114C0013434B61D9F800505B4B9D4259D1FFF7CB
:10115C004FFF00EB800000EB8000D9F80440A400A6
:10116C00B0FBF4F4554EA6FB043464092401FFF7DC
:10117C003FFF00EB800000EB8000D9F804309B00AF
:10118C00B0FBF3F7FFF734FF00EB800000EB8000BF
:10119C00D9F804309B00B0FBF3F3A6FB03235B09E7
:1011AC004FF0640808FB13731B013233A6FB0323B7
:1011BC005B0903F0F0031C44FFF71AFF00EB8000FF
:1011CC0000EB8000D9F804309B00B0FBF3F7FFF77D
:1011DC000FFF00EB800000EB8000D9F804309B007F
:1011EC00B0FBF3F3A6FB03235B0908FB13731B0192
:1011FC003233A6FB0323C3F343131C44AC60BDE89A
:10120C00F883FFF7E5FE00EB800000EB8000D9F8D7
:10121C000440A400B0FBF4F4284EA6FB043464098B
:10122C002401FFF7D5FE00EB800000EB8000D9F81D
:10123C0004309B00B0FBF3F7FFF7CAFE00EB800015
:10124C0000EB8000D9F804309B00B0FBF3F3A6FB55
:10125C0003235B094FF0640808FB13731B01323343
:10126C00A6FB03235B0903F0F0031C44FFF7B0FE5D
:10127C0000EB800000EB8000D9F804309B00B0FB41
:10128C00F3F7FFF7A5FE00EB800000EB8000D9F828
:10129C0004309B00B0FBF3F3A6FB03235B0908FBB4
:1012AC0013731B013233A6FB0323C3F343131C44F8
:1012BC00AC60BDE8F88300BF003801401F85EB51DE
:1012CC0068B310B5044690F8393013F0FF0F04D111
:1012DC00002380F83830FEF76FFF242384F8393070
:1012EC002268D36823F40053D3602046FFF70AFF2B
:1012FC002268136923F4904313612268536923F025
:10130C002A0353612268D36843F40053D36000204E
:10131C00E063202384F8393084F83A3010BD012082
:10132C00704700BF90F83A30DBB2202B20D109B3C4
:10133C0012B390F83830012B20D081628285C2859F
:10134C000023C363222280F83A2080F838300168E9
:10135C00CA6842F48072CA6001684A6942F00102AC
:10136C004A610168CA6842F02002CA601846704798
:10137C0002207047012070470120704702207047FF
:10138C00704700BF08B50168CB6823F04003CB6001
:10139C00202380F83930FFF7F3FF002008BD00BF91
:1013AC0008B590F83A30DBB2222B44D18368B3F500
:1013BC00805F13D1826A036943B903685B68C3F326
:1013CC0008031380836A0233836218E003685B6846
:1013DC00DBB21380836A0133836210E0036933B993
:1013EC00836A5A1C8262026852681A7007E0826A29
:1013FC00531C836203685B6803F07F031370C38D17
:10140C009BB2013B9BB2C385BBB90268D36823F086
:10141C002003D3600268D36823F48073D36002681E
:10142C00536923F001035361202380F83A30FEF70F
:10143C000DFF002008BD022008BD002008BD00BF24
:10144C00704700BF10B5044602681368D168526932
:10145C0013F00F0009D113F0200F06D011F0200F5C
:10146C0003D02046FFF79CFF10BD002862D012F07D
:10147C00010202D111F4907F5CD013F0010F06D061
:10148C0011F4807F03D0E06B40F00100E06313F0B7
:10149C00040F04D01AB1E06B40F00200E06313F0CB
:1014AC00020F04D01AB1E06B40F00400E06313F0BB
:1014BC00080F04D01AB1E26B42F00802E263E26B4F
:1014CC00002A4AD013F0200F05D011F0200F02D0C3
:1014DC002046FFF765FF23685B6903F04003E26B6E
:1014EC0012F0080F00D1FBB12046FFF7C7FD2368AF
:1014FC005A6912F0400F13D05A6922F040025A6117
:10150C00636B4BB1154A5A63606B00F03BF920B327
:10151C00606B436B984710BD2046FFF791FF10BDE1
:10152C002046FFF78DFF10BD2046FFF789FF0023F3
:10153C00E36310BD13F0800F06D011F0800F03D0C1
:10154C002046FFF7A9FD10BD13F0400F05D011F098
:10155C00400F02D02046FFF715FF10BD6D15000897
:10156C0008B5406A0023C385C384FFF769FF08BD33
:10157C0090F8393090F83A001843704770B582B043
:10158C000023019390F82430012B69D004460123E9
:10159C0080F8243000F010FC054600285BD1A36ACB
:1015AC0023F4885323F0020343F00203A3622E4B6F
:1015BC001E68022000F0BCF9B6FBF0F04000019070
:1015CC0002E0019B013B0193019B002BF9D12046CA
:1015DC0000F010FB2268936843F008039360FFF758
:1015EC0047FD06460FE0FFF743FD801B0A280AD98A
:1015FC00A36A23F0120343F01003A362002384F8C0
:10160C00243001202DE023689A6812F0080FEAD1EB
:10161C009A6842F004029A60FFF72AFD06460FE032
:10162C00FFF726FD801B0A280AD9A36A23F01203B0
:10163C0043F01003A362002384F82430012010E04F
:10164C0023689B6813F0040FEAD1A36A23F0030309
:10165C0043F00103A362002384F82430284600E001
:10166C00022002B070BD00BF0000002070B4C56B3A
:10167C00066C0124B4406C60046863604368102BF2
:10168C0004D103689A600368D96003E00368996029
:10169C000368DA6070BC704700282FD010B4034682
:1016AC000068184A02441849A1FB02121209920060
:1016BC001A64164ADA63022283F82120026822F4A3
:1016CC007F5121F030015C689A681443DA68144346
:1016DC001A6914435A6914439A691443DA69224308
:1016EC000A43026000209862D862186358639863BA
:1016FC00012283F8212083F8200001E001207047AB
:10170C0010BC7047F8FFFDBFCDCCCCCC0000024024
:10171C0038B590F82040012C32D0012480F82040BC
:10172C0090F82140012C26D10446022084F8210097
:10173C000020A0632568286820F00100286020465E
:10174C00FFF794FFE36A2BB12268136843F00E0392
:10175C00136009E02268136823F004031360226805
:10176C00136843F00A0313602268136843F0010303
:10177C001360002038BD002380F82030022038BDD3
:10178C00022038BD08B590F82130022B03D0042379
:10179C008363012008BD0268136823F00E031360F5
:1017AC000268136823F0010313600368194A93421B
:1017BC0011D01432934210D0143293420FD0143201
:1017CC0093420FD0143293420FD0143293420FD164
:1017DC004FF480120EE001220CE010220AE04FF4CC
:1017EC00807207E04FF4805204E04FF4803201E045
:1017FC004FF08072084B5A60012380F8213000238F
:10180C0080F82030436B13B19847002008BD0020AE
:10181C0008BD00BF080002400000024070B582B055
:10182C000446036813F0010F5CD03E4BDB6913F0E8
:10183C00805F0BD13B4BDA6942F08052DA61DB6995
:10184C0003F080530193019B012600E00026364BE8
:10185C001B6813F4807F12D1334A136843F48073EE
:10186C001360FFF705FC054604E0FFF701FC401B85
:10187C0064284FD82C4B1B6813F4807FF5D0294B70
:10188C001B6A13F4407321D0626802F440729342D5
:10189C001CD0244A136A23F44070244901250D609E
:1018AC0000250D60106213F0010F0FD0FFF7E0FB65
:1018BC00054606E0FFF7DCFB401B41F288339842FB
:1018CC002AD8184B1B6A13F0020FF3D015490B6A78
:1018DC0023F44072636813430B621EB1CB6923F08F
:1018EC008053CB61236813F0020F06D00D494B686F
:1018FC0023F44042A36813434B60236813F0100F8A
:10190C000CD008494B6823F48002E36813434B6006
:10191C00002004E0032002E0032000E0002002B0DD
:10192C0070BD00BF001002400070004040044242F5
:10193C0070B586B006463B4D02AC28686968AA684B
:10194C00EB680FC42B8AADF80430022E4ED0102E4B
:10195C0002D0012E55D12DE0334B5A681B6813F081
:10196C00807F50D0C2F3834306A90B4413F8103C7C
:10197C0012F480320ED02C494968C1F3404106A8BC
:10198C00014411F8140C4AB1284AB2FBF0F000FBE8
:10199C0003F004E0264800FB03F000E00020224B9B
:1019AC005B6813F4800F3AD14000224BA3FB00304C
:1019BC00400834E01C4B1B6A40F202321A40B2F56C
:1019CC00817F22D003F44073B3F5007F04D1164A13
:1019DC00526A12F0020F1BD1B3F5407F1BD1124B90
:1019EC001B6813F4003F18D1002018E0FFF700FB30
:1019FC000D4B5B68C3F3813301335B00B0FBF3F039
:101A0C000DE000200BE0002009E04FF4004006E060
:101A1C0049F6404003E0002001E04FF2244006B0BC
:101A2C0070BD00BFC82100080010024000127A00EF
:101A3C0000093D00ABAAAAAA704700BF08B5436ACB
:101A4C009A6A12F0500F1CD19A6A42F400729A6290
:101A5C001A68926802F46022B2F5602F0DD1DA6830
:101A6C005AB99A6A22F480729A629A6A12F4805F66
:101A7C0003D19A6A42F001029A621846FFF7DCFF22
:101A8C0008BD1B6A1B6B984708BD00BF704700BFA1
:101A9C0008B5406AFFF7FAFF08BD00BF704700BFEA
:101AAC0008B5406A836A43F040038362C36A43F01B
:101ABC000403C362FFF7F2FF08BD00BF70B483B02C
:101ACC000023019390F82430012B00F0888001232F
:101ADC0080F824304B68062B0ED80668756B03EB28
:101AEC008303053B1F249C4025EA04040A6802FA80
:101AFC0003F3234373631EE00C2B0ED805682A6B8B
:101B0C0003EB8303233B1F249C4022EA04040A6852
:101B1C0002FA03F323432B630DE00568EA6A03EB37
:101B2C008303413B1F249C4022EA04040A6802FA06
:101B3C0003F32343EB620B68092B0ED90668F56897
:101B4C0003EB43031E3B07249C4025EA04048A68EC
:101B5C0002FA03F32343F3600CE00668356903EBE8
:101B6C00430307249C4025EA04048A6802FA03F321
:101B7C00234333610B68103B012B26D803681A4AA8
:101B8C0093421CD19A6812F4000F20D19A6842F447
:101B9C0000029A600B68102B1BD1144B1B68144A63
:101BAC00A2FB03239B0C03EB83035A00019202E07C
:101BBC00019B013B0193019B002BF9D10AE0836A45
:101BCC0043F020038362012304E0002302E000239E
:101BDC0000E00023002280F82420184600E00220B8
:101BEC0003B070BC704700BF00240140000000200F
:101BFC0083DE1B4330B583B00023019303689A68DE
:101C0C0012F0010F2FD19A6842F001029A60174B23
:101C1C001B68174AA2FB03239B0C019302E0019B58
:101C2C00013B0193019B002BF9D10446FFF720FAED
:101C3C00054611E0FFF71CFA401B02280CD9A36AD9
:101C4C0043F01003A362E36A43F00103E362002351
:101C5C0084F82430012007E023689B6813F0010FFF
:101C6C00E8D0002000E0002003B030BD00000020D0
:101C7C0083DE1B43F8B504684A4DAC4203D005F52E
:101C8C008065AC4205D1474B5B6813F4702F40F074
:101C9C00858090F82440012C00F0828017460E4677
:101CAC000446012380F82430FFF7A4FF05460028E2
:101CBC0070D1A36A23F4706323F0010343F480739F
:101CCC00A3622268384B9A4205D1A3F580635B6806
:101CDC0013F4702F0ED1A36A23F48013A3625368FC
:101CEC0013F4806F1CD0A36A23F4405343F4805345
:101CFC00A36215E0A36A43F48013A362294B9A42B2
:101D0C0003D003F580639A420AD1264B5B6813F427
:101D1C00806F05D0A36A23F4405343F48053A3622D
:101D2C00A36A13F4805F04D0E36A23F00603E36232
:101D3C0001E00023E362002384F82430236A1B4A69
:101D4C009A62236A1A4ADA62236A1A4A1A63236865
:101D5C006FF002021A602268936843F480739360F8
:101D6C0021683B4632464C31206AFFF7D1FC226891
:101D7C00936803F46023B3F5602F05D1936843F4A3
:101D8C00A00393602846F8BD936843F480139360D6
:101D9C002846F8BD002384F82430F8BD0120F8BD96
:101DAC000220F8BD0024014000280140491A000817
:101DBC009D1A0008AD1A000838B503689A6812F02D
:101DCC00010F1ED004469A6822F001029A60FFF7B8
:101DDC004FF905460EE0FFF74BF9401B022809D9D5
:101DEC00A36A43F01003A362E36A43F00103E362C6
:101DFC00012038BD23689B6813F0010FEBD1002044
:101E0C0038BD002038BD00BF00287DD038B5044651
:101E1C00836A23B9C36280F82430FEF7C9FA2046DE
:101E2C00FFF7CAFFA36A13F0100F67D1002865D122
:101E3C00A36A23F4885323F0020343F00203A36242
:101E4C006268E3691343E16843EA4103A268B2F5AF
:101E5C00807F04D0012A05D14FF4807503E04FF444
:101E6C00807500E000256269012A0FD131B9A269A1
:101E7C00013A45EA423242F4006507E0A26A42F0B8
:101E8C002002A262E26A42F00102E26221684A6820
:101E9C0022F469422A434A6021688D681B4A2A4011
:101EAC001A438A60A268B2F5807F01D0012A03D15F
:101EBC002269013A110500E000212568EA6A22F442
:101ECC0070020A43EA6222689168114A0A409342FE
:101EDC0008D10023E362A36A23F0030343F0010358
:101EEC00A36238BDA36A23F0120343F01003A3626C
:101EFC00E36A43F00103E362012038BDA36A43F0B7
:101F0C001003A362012038BD01207047FDF7E1FFEB
:101F1C00FE0E1FFF074AD36823F4E0631B041B0C5F
:101F2C00000200F4E060184340F0BF6040F4003061
:101F3C00D060704700ED00E030B4164BDB68C3F3A3
:101F4C000223C3F10704042C28BF04241D1D062DF5
:101F5C0001D9DD1E00E00025012303FA04F4013C45
:101F6C002140A940AB40013B1A400A43002806DA45
:101F7C0000F00F001201D2B2074B1A5407E0120105
:101F8C00D2B200F1604000F5614080F8002330BC13
:101F9C00704700BF00ED00E014ED00E0420900F0D6
:101FAC001F00012303FA00F0014B43F82200704795
:101FBC0000E100E00138B0F1807F0AD2064B586096
:101FCC00F021064A82F823100020986007221A603C
:101FDC0070470120704700BF10E000E000ED00E00A
:101FEC00042805D1054A136843F0040313607047B5
:101FFC00024A136823F004031360704710E000E0FA
:10200C000F4B1A6842F001021A6059680D4A0A40D7
:10201C005A601A6822F0847222F480321A601A68AC
:10202C0022F480221A605A6822F4FE025A604FF49D
:10203C001F029A604FF00062034B9A60704700BF1A
:10204C00001002400000FFF800ED00E0002103E06A
:10205C000B4B5B58435004310A480B4B42189A42C5
:10206C00F6D30A4A02E0002342F8043B084B9A429A
:10207C00F9D3FFF7C5FF00F00FF8FEF7ABFA704786
:10208C00F426000800000020D4010020D401002018
:10209C00501F0020FEE700000E4B70B51E460E4C84
:1020AC000025E41AA410A54204D056F82530984710
:1020BC000135F8E700F06CF8084B094C1E46E41AA1
:1020CC00A4100025A54204D056F8253098470135B8
:1020DC00F8E770BDEC260008EC260008EC2600089A
:1020EC00F0260008F8B506460F4616F8014B00F02E
:1020FC0025F82044437817F8015B03F00303012B08
:10210C0008BF203400F01AF82844437803F0030386
:10211C00012B14BF2B4605F12003E01A01D1002B33
:10212C00E3D1F8BD034B1B68186A034B002808BFAA
:10213C0018467047640000206800002008B5034B67
:10214C001868FFF7EFFFD0F8EC0008BD6400002022
:10215C0082B001B901A93AB143B113780B6012787E
:10216C00101C18BF012003E0104601E06FF00100C5
:10217C0002B0704749B1FF2A85BF8A2303600A70F9
:10218C004FF0FF3098BF01207047084670470000A1
:10219C00F8B500BFF8BC08BC9E467047F8B500BF48
:0821AC00F8BC08BC9E46704718
:1021B40002030405060708090A0B0C0D0E0F101084
:1021C4000102000002030405060708090A0B0C0DAE
:1021D4000E0F1010010200000920092323232323DA
:1021E40023232323232323232323232323232323BB
:1021F40023232323232323232323232323232323AB
:10220400232323232323232323232323232323239A
:10221400232323232323232323232323232323238A
:102224002323232323092D2D2D2D2D202020202071
:1022340020202020202020202020205842362F58E3
:1022440042372046414E20446574656374696F6E5D
:102254002046697874757265202020202020202073
:1022640020202020202020202020202D2D2D2D2D29
:10227400092D2D2D2D2D2020202020202020202030
:1022840020202020446574656374696F6E206F6636
:10229400206D61676E65746963206669656C64208E
:1022A4006D6F746F72202020202020202020202099
:1022B4002020202020202D2D2D2D2D092D2D2D2DBC
:1022C4002D202020202020202020202020202020FD
:1022D40020202020202020202020202020202020FA
:1022E40020204669726D7761726520566572736944
:1022F4006F6E2056312E312D323031393033323732
:10230400202D2D2D2D2D092D2D2D2D2D202020205E
:10231400546F6F6C732062792074686520466F78FF
:10232400636F6E6E204361626C6520536F667457F1
:1023340061726520522644207465616D2E20202030
:1023440020323031382F31312F3231202D2D2D2DA7
:102354002D09232323232323232323232323232359
:102364002323232323232323232323232323232339
:102374002323232323232323232323232323232329
:102384002323232323232323232323232323232319
:1023940023232323232323232323232309484F579E
:1023A40020544F205553453A200D0A2009436F6DA0
:1023B4006D616E64202220434845434B20223A4EEF
:1023C4006F726D616C206D6F64652C20636865634A
:1023D4006B20746865206D6F746F72207374617400
:1023E400652E200D0A2009436F6D6D616E642022F5
:1023F400204544495420223A4465627567206D6F34
:1024040064652C20636865636B207468652076615D
:102414006C7565206F6620746865207A65726F201C
:10242400736C6964696E67207268656F7374617434
:102434002E200D0A200909004669787475726520FA
:102444004572726F72202120506C65617365206340
:102454006865636B207468652076616C7565206FB0
:102464006620746865207A65726F20736C6964698C
:102474006E67207268656F7374617421200A0000AE
:102484002D2D2D3E2056616C7565206F6620746875
:1024940065207A65726F3A20000000002D2D2D3ED4
:1024A4002073656E642022454449542220676F20BE
:1024B400746F206465627567206D6F64652C20738A
:1024C400756767657374207A65726F2076616C75C1
:1024D400653A20313030302021200A002D2D2D3E48
:1024E4002073656E642022434845434B2220746F59
:1024F4002072657475726E20746F206E6F726D61D8
:102504006C206D6F64652021200A000044657465A9
:102514006374696F6E3A204F4B2C2046414E2069FC
:102524007320576F726B2021200A00004465746584
:102534006374696F6E3A204661696C65642C204649
:10254400414E206E6F7420576F726B202121212021
:102554000A00000056616C7565206F66207468651A
:10256400207A65726F287375676765737420766166
:102574006C75652031303030293A2000434845439A
:102584004B000000434845434B204D6F64653A209F
:102594000000000045444954000000002D2D2D2D5D
:1025A4002D2D2D2D2D2D2D2D202045444954204DEC
:1025B4006F646520202D2D2D2D2D2D2D2D2D2D2DB0
:1025C4002D0A0000000000000000000001020304C6
:1025D4000607080900000000010203044300504FED
:1025E400534958002E0000202020202020202020A5
:1025F40028282828282020202020202020202020AF
:1026040020202020202020881010101010101010DE
:102614001010101010101004040404040404040422
:1026240004101010101010104141414141410101AA
:102634000101010101010101010101010101010186
:102644000101101010101010424242424242020294
:102654000202020202020202020202020202020256
:102664000202101010102000000000000000000002
:102674000000000000000000000000000000000056
:102684000000000000000000000000000000000046
:102694000000000000000000000000000000000036
:1026A4000000000000000000000000000000000026
:1026B4000000000000000000000000000000000016
:1026C4000000000000000000000000000000000006
:1026D40000000000000000000000000000000000F6
:0826E4000000000000000000EE
:0426EC0031010008B0
:0426F0000D010008D0
:1026F40000A24A04000000000000000000000000E6
:1027040000000000000000000000000000000000C5
:1027140000000000000000000000000000000000B5
:1027240000000000000000000000000000000000A5
:102734000000000000000000000000000000000095
:102744000000000000000000000000000000000085
:10275400000000000400002043000000000000000E
:102764000000000000000000000000000000000065
:102774000000000000000000430000000000000012
:102784000000000000000000000000000000000045
:1027940000000000000000004300000000000000F2
:1027A4000000000000000000000000000000000025
:1027B40000000000000000004300000000000000D2
:1027C4000000000000000000000000000000000005
:1027D40000000000000000004300000000000000B2
:1027E40000000000000000000000000000000000E5
:1027F4000000000000000000430000000000000092
:1028040000000000000000000000000000000000C4
:102814000000000000000000430000000000000071
:1028240000000000000000000000000000000000A4
:102834000000000000000000812100085D21000864
:1028440000000000EA250008E8250008E925000842
:10285400E9250008E9250008E9250008E92500081C
:10286400E9250008E9250008E9250008E92500080C
:10287400FFFFFFFFFFFFFFFFFFFFFFFFFFFF000062
:1028840001004153434949000000000000000000DA
:102894000000000000000000000000000000000034
:1028A40000004153434949000000000000000000BB
:1028B4000000000000000000000000000000000014
:0428C4000000000010
:040000050800205976
:00000001FF
