:020000040800F2
:10000000FF4F0020D54200089D050008A10500080B
:10001000A5050008A9050008AD05000800000000BE
:10002000000000000000000000000000B105000812
:10003000B505000800000000B9050008BD0500086E
:100040001D4300081D4300081D4300081D43000810
:100050001D4300081D4300081D4300081D43000800
:100060001D4300081D4300081D4300081D430008F0
:100070001D4300081D4300081D4300081D430008E0
:100080001D4300081D4300081D4300081D430008D0
:10009000C50500081D4300081D4300081D43000856
:1000A0001D4300081D4300081D4300081D430008B0
:1000B0001D4300081D4300081D4300081D430008A0
:1000C0001D4300081D4300081D4300081D43000890
:1000D0001D430008E10200081D4300081D430008FD
:1000E0001D4300081D4300081D43000800000000D8
:1000F0000000000000000000000000000000000000
:0C01000000000000000000005FF808F1A3
:10010C0010B5054C237833B9044B13B10448AFF345
:10011C0000800123237010BD50030020000000005C
:10012C0018440008084B10B51BB108490848AFF338
:10013C0000800848036803B910BD074B002BFBD0A7
:10014C00BDE81040184700BF000000005403002019
:10015C00184400085003002000000000034613F868
:10016C00012B002AFBD1181A01387047704700BFC9
:10017C0007E00130054A5360044B1B6813F0400F35
:10018C00FAD00378002BF4D1704700BF003801403F
:10019C0010B50A4C0A4B236060600023A360E36037
:1001AC002361A3610C236361204602F07DF80122D8
:1001BC000449204602F0AAF810BD00BF042100201B
:1001CC0000380140442100200268224B9A423FD162
:1001DC0030B589B003F558439A6942F004029A612C
:1001EC009A6902F004020192019A9A6942F48042DF
:1001FC009A619A6902F480420292029A9A6942F0D8
:10020C0001029A619B6903F001030393039B4FF472
:10021C00007304930223059301230693032407948C
:10022C000D4D04A9284601F0BFFA4FF480630493E6
:10023C000023059304A9284601F0B6FA252003F003
:10024C0087FB22462146252003F050FB09B030BD28
:10025C00704700BF00380140000801400268194B8C
:10026C009A422DD1184B1B8813F4004F28D103F45C
:10027C00804292B272B1154A12780A2A03D0002237
:10028C00114B1A8070476FEA43436FEA53430E4A8F
:10029C00138070470D4A12780D2A04D143F4804321
:1002AC00094A13807047C3F30D01094842540133C6
:1002BC009BB2054A1380C72B02D90022024B1A802D
:1002CC00704700BF003801406C030020442100201F
:1002DC004821002008B5084802F0A8F8064802F0AA
:1002EC003BF92028FAD101220449034802F00EF808
:1002FC000028F8D108BD00BF0421002044210020B3
:10030C0002680E4B9A4217D100B583B003F5DA336D
:10031C00DA6942F40002DA61DB6903F40003019349
:10032C00019B00221146142003F0E0FA142003F084
:10033C000FFB03B05DF804FB704700BF005C00408E
:10034C0008B500F22C41D0F85C0400F099FF08BD10
:10035C0008B500EB4113D3F83C22D0F85C0400F054
:10036C00BDFF08BD08B500EB4113DA6BD0F85C0497
:10037C0000F0E8FF08BD00BF08B5D0F85C0401F040
:10038C006BF808BD10B504460121D0F85C0401F0EF
:10039C004FF8D4F85C0401F02BF810BD10B50446EE
:1003AC00D0F85C0401F048F8A36923B1024A136940
:1003BC0043F00603136110BD00ED00E008B5D0F862
:1003CC005C0401F043F808BD38B505461C48C0F87C
:1003DC005C54C5F820021B4B0360082343600223C6
:1003EC0083600323C36000248461C461046203F04E
:1003FC00E1FA182322462146D5F8200201F0B8F97B
:10040C00582322468021D5F8200201F0B1F9C023EF
:10041C0022468121D5F8200201F0AAF94FF4887305
:10042C0022460121D5F8200201F0A2F94FF4807385
:10043C0022468221D5F8200201F09AF9204638BDD7
:10044C0078220020005C004008B5D0F8200203F0B0
:10045C001FFB10B1022802D003E0002008BD0120D0
:10046C0008BD022008BD00BF10B51C46134622462D
:10047C00D0F8200203F038FB10B1022802D003E0C0
:10048C00002010BD012010BD022010BD08B5D0F811
:10049C00200203F053FB10B1022802D003E000202D
:1004AC0008BD012008BD022008BD00BF08B5D0F86A
:1004BC00200203F08DFE10B1022802D003E00020D0
:1004CC0008BD012008BD022008BD00BF08B5D0F84A
:1004DC00200203F0ABFE10B1022802D003E0002092
:1004EC0008BD012008BD022008BD00BFD0F82022A5
:1004FC0011F0800F06D001F07F0302EB431191F84D
:10050C002A00704701F07F0102EB411191F82A0299
:10051C00704700BF08B5D0F8200203F0D1FA10B133
:10052C00022802D003E0002008BD012008BD0220F3
:10053C0008BD00BF08B5D0F8200203F04FFB10B186
:10054C00022802D003E0002008BD012008BD0220D3
:10055C0008BD00BF08B5D0F8200203F017FB10B19E
:10056C00022802D003E0002008BD012008BD0220B3
:10057C0008BD00BF08B5D0F8200203F027FB08BD6A
:10058C000048704770030020704700BF704700BFE1
:10059C00704700BFFEE700BFFEE700BFFEE700BFED
:1005AC00FEE700BF704700BF704700BF704700BF39
:1005BC0008B501F049FD08BD08B5024803F05AFD25
:1005CC0008BD00BF7822002000B595B001230A9326
:1005DC004FF480330B9300220C920222119212934F
:1005EC0013900AA801F0E8F900B1FEE70F23059378
:1005FC0002210691002307934FF48062089209931D
:10060C0005A801F011FC00B1FEE7102301930023B3
:10061C00049301A802F0F6F800B1FEE715B05DF8FE
:10062C0004FB00BF30B589B0022304934FF40043A0
:10063C00069304A802F0E6F80C4C0D4B2360002343
:10064C00A3600125E56063614FF46022E2616360A1
:10065C002561204603F0B2F801950295052303931A
:10066C0001A9204602F004FF09B030BDD8260020B5
:10067C000024014030B589B01F4B9A6942F40072D6
:10068C009A619A6902F400720192019A9A6942F095
:10069C0004029A619A6902F004020292029A5A695F
:1006AC0042F001025A615B6903F001030393039B5F
:1006BC0002230493032305930025069504A90F48F0
:1006CC0001F072F80E4C0F4B23606560A56080231F
:1006DC00E3604FF4807323614FF4806363612023E4
:1006EC00A3614FF40053E361204601F0C9FF064BB0
:1006FC001C62636209B030BD00100240000801406A
:10070C000827002008000240D826002010B5094C0C
:10071C0000220949204600F077FD0849204600F0E8
:10072C008BFD0749204600F0DBFF204600F08CFDD6
:10073C0010BD00BF4C27002038000020B000002066
:10074C000800002070B586B00E4B9A6942F010027A
:10075C009A619B6903F010030193019B4FF40056BF
:10076C00029601240394049403230593064D02A9D5
:10077C00284601F019F822463146284601F000F9C6
:10078C0006B070BD00100240001001400020704700
:10079C000020704738B5154B1B781BB1134B00224A
:1007AC001A709A800B68114CA380114D1149284680
:1007BC0000F0A6FF284600F0C1FFA388B3F5006F38
:1007CC000BD29A1E0B49895C627891420BD15A1E4E
:1007DC000849895CA278914205D10121034A117024
:1007EC000021044AD154002038BD00BF0000002075
:1007FC004C2700207029002010B5064C0022064919
:10080C00204600F075FF0549204600F079FF0020D6
:10081C0010BD00BF4C270020703100207029002033
:10082C0038B50A4BD3F81832D3F8143263B90446EE
:10083C00FFF794FC054D82B22146284600F058FF84
:10084C00284600F063FF38BD012038BD4C2700203E
:10085C0010B50446042003F09DF8014B1C6010BD3C
:10086C009005002030B40C4A55680C4B1B6800FBFB
:10087C0003F0936800211A46074B9B689A42FBD001
:10088C0002D9D21A114402E0EC1A224411448142DA
:10089C00F1D330BC704700BF10E000E090050020A1
:1008AC0038B50546002404E04FF47A70FFF7DAFF00
:1008BC000134AC42F8D338BD10B487B00021134BCF
:1008CC00A3FB0023DB081A4603EB83035C00031B2A
:1008DC0006A80844303300F8143C0131C9B2104664
:1008EC00002AECD1002309E0CA1A013A06A80244F6
:1008FC0012F8140C064AD0540133DBB28B42F3D3FA
:10090C0003480022C25407B010BC7047CDCCCCCCED
:10091C004C11002003680A6802600B60704700BF2E
:10092C002DE9F84305460C4616464F1E00EB82088F
:10093C0050F822900BE005EB840055F824309945D3
:10094C0004DB013705EB8701FFF7E4FF0134B44208
:10095C00F1DB013705EB87014046FFF7DBFF38463B
:10096C00BDE8F883914212DAF8B514460D460646F6
:10097C00FFF7D6FF0746421E29463046FFF7F2FF27
:10098C002246791C3046FFF7EDFF0020F8BD002011
:10099C00704700BF70B501F045FB4FF4E010FFF756
:1009AC0013FEFFF7B3FE4820FFF752FF4FF416502B
:1009BC00FFF7EEFBFFF7C6FEFFF734FE8A4C20462E
:1009CC0001F0D0FD4FF4FA628849204602F02CFE6B
:1009DC004FF4FA70FFF764FF4FF4FA60FFF760FF13
:1009EC00834C2068FFF7C4FB2068FFF719FF002435
:1009FC00012C76D11AE07D4A32F813107D4A22F888
:100A0C001310013300E0002340F2DB529342F2DD7D
:100A1C00784E00213046FFF7A5FFB6F8AE3B728941
:100A2C009B1A5A2B00DD0135013401E000242546C8
:100A3C00092CE8DD6F4BB3F8AE4B5B891C4464109A
:100A4C00A4F59673B3F5AF6F37D96B4D2868FFF7E4
:100A5C008FFB2868FFF7E4FE3220FFF721FF674D7C
:100A6C002868FFF785FB2868FFF7DAFE2046FFF7BA
:100A7C0023FFFFF77DFB2046FFF71EFFFFF7D0FE9D
:100A8C005F4C2046FFF774FB2046FFF7C9FE32206F
:100A9C00FFF706FF5B4C2068FFF76AFB2068FFF747
:100AAC00BFFE3220FFF7FCFE574C2068FFF760FBBF
:100ABC002068FFF7B5FE00244CE0012D08DD534CF7
:100ACC002068FFF755FB2068FFF7AAFE002441E0E1
:100ADC004F4C2068FFF74CFB2068FFF7A1FE002469
:100AEC0038E0022C36D107E0404A32F81310414A64
:100AFC0022F81310013300E0002340F2DB52934242
:100B0C00F2DD3C4D00212846FFF72CFF414E3068AA
:100B1C00FFF72EFB3068FFF783FEB5F8AE0B6B8941
:100B2C0018444010FFF7C8FEFFF722FBB5F8AE0BD8
:100B3C006B8918444010FFF7BFFEFFF771FE304D74
:100B4C002846FFF715FB2846FFF76AFE4FF4FA70AC
:100B5C00FFF7A6FE304B1B8803F44042B2F5404F22
:100B6C001ED1C3F30D032D480022C2542A4B1A8008
:100B7C002B4903F0F5FB38B92A48FFF7F9FA642042
:100B8C00FFF78EFE01240BE02749244803F0E8FB15
:100B9C0030B92648FFF7ECFA6420FFF781FE0224F7
:100BAC00234B1B78012B7FF423AF0022204B1A70B0
:100BBC002049214803F0D4FB38B91A48FFF730FE1E
:100BCC006420FFF76DFE012412E71C491A4803F05C
:100BDC00C7FB00287FF40CAF1448FFF721FE6420FC
:100BEC00FFF75EFE022403E7D826002060110020E8
:100BFC002000002094050020240000202C00002060
:100C0C00FC440008300000203400002028000020A4
:100C1C00180000201C0000206C030020482100203C
:100C2C0058440008604400087044000878440008E8
:100C3C0000000020A044000870290020A8440008EF
:100C4C0012230B80004870475800002004230B80AF
:100C5C00004870475400002008B50A4620B90549E1
:100C6C00054800F0B3FA03E00249034800F0AEFA7D
:100C7C00004808BD703900206448000810B5044CC9
:100C8C000A462146034800F0A1FA204610BD00BFD9
:100C9C00703900208048000808B50A4620B905497B
:100CAC00054800F093FA03E00249034800F08EFA7D
:100CBC00004808BD703900209448000808B50A4661
:100CCC0020B90549054800F081FA03E002490348C0
:100CDC0000F07CFA004808BD70390020A4480008D8
:100CEC0008B50A4620B90549054800F06FFA03E03B
:100CFC000249034800F06AFA004808BD7039002028
:100D0C00B04800080346002002E00130C0B20133B5
:100D1C001A78002AF9D170474B88012B0BD110B5EA
:100D2C000446C0F80432D0F814329B689847204629
:100D3C0000F0CCFB10BD70470B7803704B78437000
:100D4C008B78CA7803EB022343800B794A7903EB47
:100D5C00022383808B79CA7903EB0223C38070470B
:100D6C0010B504468021FFF7A1FB00212046FFF7B8
:100D7C009DFB10BD30B583B004460D464A88130A5E
:100D8C00013B062B79D8DFE803F0040C2078785C63
:100D9C006900D0F810321B680DF10601007C9847F1
:100DAC006FE0037C43B9D0F814329B6A0DF1060056
:100DBC0098470223437064E0D0F81432DB6A0DF1DB
:100DCC0006009847022343705BE0D2B2052A34D860
:100DDC00DFE802F0030B131B232BD0F810325B68F7
:100DEC000DF10601007C98474BE0D0F810329B685F
:100DFC000DF10601007C984743E0D0F81032DB6817
:100E0C000DF10601007C98473BE0D0F810321B69CD
:100E1C000DF10601007C984733E0D0F810325B6985
:100E2C000DF10601007C98472BE0D0F810329B693D
:100E3C000DF10601007C984723E02946FFF790FF4F
:100E4C002DE0037C33B9D0F814325B6B0DF1060046
:100E5C00984716E02946FFF783FF20E0037C43B94F
:100E6C00D0F814321B6B0DF1060098470723437022
:100E7C0007E02946FFF774FF11E02946FFF770FFE2
:100E8C000DE0BDF8063053B1EA8842B19A4228BF52
:100E9C001A46ADF806200146204600F0E9FA03B0E8
:100EAC0030BD00BF38B504468B88E3B9CB88D3B9C5
:100EBC008D7805F07F0590F8FC31032B02D1FFF7FC
:100ECC004FFF38BD80F8FE512946FFF723FB204623
:100EDC0000F0FCFA1DB1022384F8FC3138BD01236B
:100EEC0084F8FC3138BD2046FFF73AFF38BD00BF0F
:100EFC0038B504460D468978264B1970012903D95B
:100F0C002946FFF72DFF38BD90F8FC31022B02D09B
:100F1C00032B15D039E081B14160032380F8FC31FB
:100F2C0000F098F9022804D129462046FFF718FF53
:100F3C0038BD204600F0CAFA38BD00F0C7FA38BDFB
:100F4C0049B9022380F8FC31416000F091F9204648
:100F5C0000F0BCFA38BD4368994213D0D9B200F006
:100F6C0087F90C4B19786160204600F073F9022860
:100F7C0004D129462046FFF7F3FE38BD204600F089
:100F8C00A5FA38BD00F0A2FA38BD2946FFF7E8FEF5
:100F9C0038BD00BF0021002008B5CB88012B02D042
:100FAC00FFF7DEFE08BD90F8FC31022B02D0032BBC
:100FBC0008D00CE00146002341F8083F012200F064
:100FCC0057FA08BD0122011D00F052FA08BDFFF7C7
:100FDC00C7FE08BD08B590F8FC31023B012B0CD8BC
:100FEC000123C360D0F804320BB10323C360022287
:100FFC0000F10C0100F03CFA08BDFFF7B1FE08BD92
:10100C0010B5044690F8FC31023B012B0DD84B88EF
:10101C00012B0CD10023C0F80432D0F814329B6899
:10102C009847204600F052FA10BDFFF799FE10BD0C
:10103C0008B54B78092B1BD8DFE803F011171A14ED
:10104C001A08051A0E0BFFF795FE13E0FFF72AFF9F
:10105C0010E0FFF74DFF0DE0FFF79EFF0AE0FFF7F2
:10106C00B9FF07E0FFF758FE04E0FFF7C9FF01E006
:10107C00FFF776FE002008BD38B504460D4690F803
:10108C00FC31032B0FD10B79012B09D8D0F814327A
:10109C009B689847EB8843B9204600F017FA04E0A8
:1010AC00FFF75EFE01E0FFF75BFE002038BD00BFDE
:1010BC0038B505460C468A880B7803F06003202B64
:1010CC0004D1D0F814329B6898477DE0D1B2637894
:1010DC00012B26D0002B48D0032B75D190F8FC3176
:1010EC00022B02D0032B07D017E000296CD08029EB
:1010FC006AD0FFF7DBF967E0638823B919B180295F
:10110C0001D0FFF7D3F9D5F814329B682146284655
:10111C009847284600F0DAF956E02146FFF720FE02
:10112C0052E090F8FC31022B02D0032B07D018E0D0
:10113C00002949D0802947D0FFF7B8F944E06388EB
:10114C00002B41D111F07F0F07D0FFF7BFF9D5F875
:10115C0014329B68214628469847284600F0B6F979
:10116C0032E02146FFF7FCFD2EE090F8FC31022B1B
:10117C0002D0032B06D024E011F07F0F24D0FFF710
:10118C0095F921E012F0800F06D001F07F040134B4
:10119C0000EB0414043405E001F07F04103400EB80
:1011AC00041404342846FFF7A1F910B1012323607D
:1011BC0001E00023236002222146284600F058F962
:1011CC0002E02146FFF7CCFD002038BDD0B170B550
:1011DC000D4616460446FFF795FD0130400080B2DF
:1011EC003080287003236B70022307E05A1CD2B2A4
:1011FC000134E9540233DBB20021A95421780029CF
:10120C00F4D170BD704700BF98B108B50346D0F853
:10121C00140210B10020C3F8140209B1C3F8101263
:10122C001846012380F8FC310270FFF7CDF800203E
:10123C0008BD0220704700BF19B1C0F8141200207D
:10124C0070470220704700BF08B5FFF7FDF800207B
:10125C0008BD00BF08B5D0F8143223B11B689847FD
:10126C0018B1022008BD022008BD002008BD00BF37
:10127C0008B5D0F814325B689847002008BD00BF51
:10128C0038B5044600F502752846FFF755FD0123D5
:10129C00C4F8F431B4F80E32C4F8F83194F80812EA
:1012AC0001F01F03012B08D013B1022B0AD00EE062
:1012BC0029462046FFF7BCFE0EE029462046FFF7E4
:1012CC00DBFE09E029462046FFF7F2FE04E001F0C0
:1012DC0080012046FFF7EAF8002038BD10B504461F
:1012EC0011BB1346D0F8F421032A28D1D0F80C11E5
:1012FC00D0F8102191420AD9891AC0F80C118A42EF
:10130C0028BF0A4692B2194600F0D8F817E0D0F878
:10131C0014321B6923B190F8FC21032A00D19847A1
:10132C00204600F0D3F80AE00A46D0F814329B6944
:10133C002BB190F8FC11032901D1114698470020DC
:10134C0010BD00BF10B50446002943D11346D0F898
:10135C00F421022A36D1C169026A91420CD98A1A47
:10136C00C26192B2194600F091F800231A46194650
:10137C002046FFF7EFF825E08169B1FBF2F302FBA1
:10138C00131393B98A4210D8D0F8F83199420CD281
:10139C000022114600F07AF80021C4F8F8110B462F
:1013AC000A462046FFF7D6F80CE0D4F81432DB6876
:1013BC002BB194F8FC21032A01D1204698472046F2
:1013CC0000F090F894F80032012B0ED1002384F831
:1013DC0000320AE00A46D0F814325B692BB190F85F
:1013EC00FC11032901D111469847002010BD00BF04
:1013FC0038B50446402300221146FFF735F8402546
:10140C00C4F810512B46002280212046FFF72CF8FF
:10141C002562012384F8FC31D4F818322BB1D4F8AE
:10142C0014325B68217920469847002038BD00BFF4
:10143C0001740020704700BF90F8FC3180F8FD313A
:10144C00042380F8FC310020704700BF90F8FD3178
:10145C0080F8FC310020704708B590F8FC31032B64
:10146C0004D1D0F81432DB6903B19847002008BDD1
:10147C0010B513460222C0F8F4218361C3610A46F9
:10148C000021FFF757F8002010BD00BF08B5134628
:10149C000A460021FFF74EF8002008BD10B5134690
:1014AC000322C0F8F421C0F80831C0F80C310A4608
:1014BC000021FFF74FF8002010BD00BF08B5134600
:1014CC000A460021FFF746F8002008BD08B50423A2
:1014DC00C0F8F43100231A461946FFF72BF8002008
:1014EC0008BD00BF08B50523C0F8F43100231A4627
:1014FC001946FFF72FF8002008BD00BFD0F81832AE
:10150C001BB10020C3F8140270470220704700BFC3
:10151C0010B5D0F81842D0F81C325BB194F8000228
:10152C00FF2807D09B6894F8012221469847FF2397
:10153C0084F80032002010BD43230380004870471C
:10154C006C000020432303800048704738010020C2
:10155C004323038000487047F40000200A230380D3
:10156C0000487047E800002038B50446D0F81852FF
:10157C00FFF700F8C5F80C02D4F818324BB1D4F8C8
:10158C001C32DB6805F50371D5F80402984700207E
:10159C0038BD022038BD00BF70B505460C46D0F8EA
:1015AC0018620B7813F0600224D0202A29D1CA8843
:1015BC00CAB113F0800F0BD0D0F81C329B683146A7
:1015CC0060789847E28831462846FFF751FF18E0CB
:1015DC004B7886F80032CB8886F80132CA883146BF
:1015EC00FFF75CFF0DE0D0F81C329B6800224878B6
:1015FC00984706E04B780A2B03D101220249FFF7EA
:10160C0037FF002070BD00BF0121002010B504463B
:10161C008121FEF73BFF01212046FEF737FF822197
:10162C002046FEF733FFD4F8183253B1D4F81C32ED
:10163C005B689847D4F81802FEF7A6FF0023C4F89D
:10164C001832002010BD00BF38B50446037C6BB9BE
:10165C004FF4007302228121FEF706FF4FF4007352
:10166C00022201212046FEF7FFFE0AE0402302225F
:10167C008121FEF7F9FE4023022201212046FEF7CC
:10168C00F3FE0823032282212046FEF7EDFE4FF4E1
:10169C000770FEF775FF0546C4F81802E8B1D4F8D8
:1016AC001C321B6898470023C5F81432C5F8183251
:1016BC00237C4BB94FF40073D5F80422012120464A
:1016CC00FEF748FF002038BD4023D5F80422012145
:1016DC002046FEF73FFF002038BD012038BD00BF7B
:1016EC0019B1C0F81C12002070470220704700BFCF
:1016FC00D0F81832C3F80812C3F810220020704733
:10170C00D0F81832C3F8041200207047D0F8182211
:10171C007AB108B5D2F814326BB90123C2F814327D
:10172C00B2F81032D2F808228121FEF703FF002014
:10173C0008BD02207047012008BD00BFD0F8182258
:10174C009AB108B5037C43B94FF40073D2F8042264
:10175C000121FEF7FFFE002008BD4023D2F8042231
:10176C000121FEF7F7FE002008BD0220704700BFE4
:10177C0010B401F08004A4B22CB101F07F01490136
:10178C002831014403E0490101F50A71014412B901
:10179C008A728B8004E001228A72CB801B0C0B8135
:1017AC00002010BC704700BFF0B583B00026344653
:1017BC00D5E00122A2400B6813409A4240F0CE8043
:1017CC004D68122D2DD00BD8022D27D003D85DB328
:1017DC00012D1ED035E0032D30D0112D1BD030E063
:1017EC00614FBD4220D008D8A7F58017BD421BD051
:1017FC0007F58037BD4224D116E05C4FBD4213D0B3
:10180C0007F58037BD420FD0A7F58017BD4218D120
:10181C000AE0CE6815E0CE68043612E0CE680836D1
:10182C000FE0CE680C360CE08D684DB1012D02D165
:10183C000261082605E04261082602E0002600E06D
:10184C000426FF2B01D8864601E000F1040EFF2B85
:10185C0001D8A20002E0A4F108029200DEF80070A8
:10186C000F25954027EA050506FA02F22A43CEF821
:10187C0000204A6812F0805F70D03D4A956945F0AF
:10188C0001059561926902F001020192019AA70883
:10189C00BD1C384A52F8255004F0030292004FF058
:1018AC000F0E0EFA02FE25EA0E0E334DA8420DD095
:1018BC0005F58065A8420BD005F58065A84209D0D6
:1018CC0005F58065A84207D1032506E0002504E054
:1018DC00012502E0022500E0042505FA02F24EEA99
:1018EC0002020237234D45F827204A6812F4803F44
:1018FC0005D005F580652A681A432A6004E01F4D5F
:10190C002A6822EA03022A604A6812F4003F04D0D3
:10191C001A4D6A681A436A6004E0184D6A6822EA34
:10192C0003026A604A6812F4801F04D0134DAA683F
:10193C001A43AA6004E0114DAA6822EA0302AA60C5
:10194C004A6812F4001F04D00C4DEA681343EB6094
:10195C0004E00A4DEA6822EA0303EB6001340F2C21
:10196C007FF627AF03B0F0BD00002110000031104E
:10197C00001002400000014000080140000401403A
:10198C000AB10161704709040161704782B0084BCC
:10199C001B68084AA2FB03235B0A00FB03F00190BF
:1019AC0000BF019B5A1E0192002BF9D102B0704767
:1019BC007C010020D34D621070B582B004460368E0
:1019CC0013F0010F6BD0A84B5B6803F00C03042BD6
:1019DC000AD0A54B5B6803F00C03082B0DD1A24B6E
:1019EC005B6813F4803F08D09F4B1B6813F4003FD7
:1019FC0055D06368002B52D1B8E16368B3F5803FD2
:101A0C0005D1994A136843F48033136026E063B917
:101A1C0003F1804303F504331A6822F480321A6010
:101A2C001A6822F480221A6018E0B3F5A02F0CD1AA
:101A3C0003F18043A3F53C331A6842F480221A6008
:101A4C001A6842F480321A6008E0874B1A6822F454
:101A5C0080321A601A6822F480221A6063687BB1A3
:101A6C0000F0FAFA054605E000F0F6FA401B64288F
:101A7C0000F27E817C4B1B6813F4003FF4D00EE027
:101A8C0000F0EAFA054605E000F0E6FA401B64288F
:101A9C0000F27081744B1B6813F4003FF4D123687F
:101AAC0013F0020F50D0704B5B6813F00C0F0AD080
:101ABC006D4B5B6803F00C03082B16D16A4B5B680B
:101ACC0013F4803F11D1684B1B6813F0020F03D045
:101ADC002369012B40F05081634A136823F0F8030B
:101AEC00616943EAC10313602EE02369D3B101227B
:101AFC005E4B1A6000F0B0FA054605E000F0ACFA57
:101B0C00401B022800F23A81574B1B6813F0020F5E
:101B1C00F4D0554A136823F0F803616943EAC10312
:101B2C00136011E00022514B1A6000F095FA054643
:101B3C0005E000F091FA401B022800F221814A4B8B
:101B4C001B6813F0020FF4D1236813F0080F29D08F
:101B5C00A369ABB10122464B1A6000F07DFA054631
:101B6C0005E000F079FA401B022800F20B813E4B95
:101B7C005B6A13F0020FF4D00120FFF707FF11E0AE
:101B8C0000223B4B1A6000F067FA054605E000F0B6
:101B9C0063FA401B022800F2F780334B5B6A13F0A8
:101BAC00020FF4D1236813F0040F00F089802E4B40
:101BBC00DB6913F0805F0BD12B4BDA6942F080525A
:101BCC00DA61DB6903F080530193019B012500E08E
:101BDC000025284B1B6813F4807F13D1254A13680A
:101BEC0043F48073136000F037FA064605E000F00A
:101BFC0033FA801B642800F2C9801E4B1B6813F457
:101C0C00807FF4D0E368012B05D1174A136A43F0A7
:101C1C000103136222E063B903F1804303F504333B
:101C2C001A6A22F001021A621A6A22F004021A627B
:101C3C0014E0052B09D10C4B1A6A42F004021A620B
:101C4C001A6A42F001021A6208E0074B1A6A22F083
:101C5C0001021A621A6A22F004021A62E368CBB11A
:101C6C0000F0FAF906460FE0001002400000424274
:101C7C00800442420070004000F0EEF9801B41F2FB
:101C8C008833984200F28480494B1B6A13F0020F90
:101C9C00F2D00FE000F0E0F9064606E000F0DCF9C7
:101CAC00801B41F28833984274D8414B1B6A13F065
:101CBC00020FF3D125B13E4AD36923F08053D3618F
:101CCC00E369002B68D03A4A526802F00C02082AE9
:101CDC0064D0022B37D10022364B1A6000F0BCF9CD
:101CEC00054604E000F0B8F9401B022858D8304BE8
:101CFC001B6813F0007FF5D1236AB3F5803F06D142
:101D0C002B494B6823F40032A36813434B602848DB
:101D1C00436823F47411236A626A13430B434360D0
:101D2C000122244B1A6000F097F9044604E000F0FD
:101D3C0093F9001B022835D81D4B1B6813F0007F4C
:101D4C00F5D0002031E000221A4B1A6000F084F923
:101D5C00044604E000F080F9001B022824D8144B40
:101D6C001B6813F0007FF5D100201EE001201CE061
:101D7C0003201AE0032018E0012016E0032014E0F1
:101D8C00032012E0032010E003200EE003200CE0FF
:101D9C0003200AE0032008E0002006E0012004E014
:101DAC00032002E0032000E0032002B070BD00BF5E
:101DBC00001002406000424230B486B0164D02ACB6
:101DCC0028686968AA68EB680FC42B8AADF80430E0
:101DDC00124B5B6803F00C02082A19D1C3F383423F
:101DEC0006A90A4412F8102C13F4803F0CD00B4BAC
:101DFC005B68C3F340430B4413F8140C084BB3FB60
:101E0C00F0F000FB02F004E0064800FB02F000E0FA
:101E1C00034806B030BC7047304400080010024044
:101E2C0000127A0000093D0070B55C4B1B6803F092
:101E3C0007038B420BD2594A136823F007030B4359
:101E4C001360136803F00703994240F0978003680E
:101E5C0013F0020F06D0524C636823F0F002836833
:101E6C00134363600D460446036813F0010F4DD015
:101E7C004268012A05D14A4B1B6813F4003F0DD16F
:101E8C007EE0022A05D1464B1B6813F0007F05D17A
:101E9C0078E0434B1B6813F0020F75D040494B6838
:101EAC0023F0030313434B6000F0D6F80646636837
:101EBC00012B0ED106E000F0CFF8801B41F28833E5
:101ECC00984263D8364B5B6803F00C03042BF2D1B9
:101EDC001CE0022B15D106E000F0BEF8801B41F28D
:101EEC008833984254D82E4B5B6803F00C03082BB4
:101EFC00F2D10BE000F0B0F8801B41F2883398422D
:101F0C0048D8274B5B6813F00C0FF3D1234B1B689D
:101F1C0003F007039D420AD2204A136823F00703FB
:101F2C002B431360136803F007039D4234D12368DD
:101F3C0013F0040F06D01A494B6823F4E062E368EF
:101F4C0013434B60236813F0080F07D0144A5368EF
:101F5C0023F46053216943EAC1035360FFF72CFF5C
:101F6C000F4B5B68C3F303130E4AD35CD8400E4B84
:101F7C0018600F2000F040F8002070BD012070BDEB
:101F8C00012070BD012070BD012070BD032070BD0B
:101F9C00032070BD032070BD012070BD00200240E5
:101FAC0000100240C04800087C010020014B18685A
:101FBC00704700BF7C01002008B5FFF7F7FF044B0A
:101FCC005B68C3F30223034AD35CD84008BD00BF4F
:101FDC0000100240D048000808B5FFF7E7FF044B9B
:101FEC005B68C3F3C223034AD35CD84008BD00BF6F
:101FFC0000100240D048000810B50446074B1B687F
:10200C000748A0FB0330800901F0AEFC00222146FA
:10201C004FF0FF3001F06AFC002010BD7C01002065
:10202C00D34D621008B5074A136843F010031360D0
:10203C00032001F049FC0F20FFF7DEFFFEF796F8B6
:10204C00002008BD00200240024A136801331360CF
:10205C00704700BF703B0020014B1868704700BFF1
:10206C00703B00200268D36823F49073D36002683D
:10207C00536923F001035361202380F83A307047F1
:10208C0090F83930DBB2212B2BD18368B3F5805F0C
:10209C000FD1036A02681B88C3F3080353600369FA
:1020AC001BB9036A0233036209E0036A013303625A
:1020BC0005E00268036A591C01621B785360C38CEB
:1020CC009BB2013B9BB2C3846BB90268D36823F00B
:1020DC008003D3600268D36843F04003D3600020D0
:1020EC007047022070470020704700BF2DE9F8436D
:1020FC00814601680B6923F44052C36813430B619A
:10210C00816803691943436919430068C26822F462
:10211C00B05323F00C030B43C360D9F800104B6988
:10212C0023F44072D9F8183013434B61D9F800509E
:10213C005B4B9D4259D1FFF74FFF00EB800000EB4A
:10214C008000D9F80440A400B0FBF4F4554EA6FB73
:10215C00043464092401FFF73FFF00EB800000EB1F
:10216C008000D9F804309B00B0FBF3F7FFF734FF85
:10217C0000EB800000EB8000D9F804309B00B0FB32
:10218C00F3F3A6FB03235B094FF0640808FB1373FE
:10219C001B013233A6FB03235B0903F0F0031C4441
:1021AC00FFF71AFF00EB800000EB8000D9F8043039
:1021BC009B00B0FBF3F7FFF70FFF00EB800000EB89
:1021CC008000D9F804309B00B0FBF3F3A6FB03238B
:1021DC005B0908FB13731B013233A6FB0323C3F308
:1021EC0043131C44AC60BDE8F883FFF7E5FE00EB3D
:1021FC00800000EB8000D9F80440A400B0FBF4F49C
:10220C00284EA6FB043464092401FFF7D5FE00EB2D
:10221C00800000EB8000D9F804309B00B0FBF3F792
:10222C00FFF7CAFE00EB800000EB8000D9F8043009
:10223C009B00B0FBF3F3A6FB03235B094FF0640890
:10224C0008FB13731B013233A6FB03235B0903F05A
:10225C00F0031C44FFF7B0FE00EB800000EB8000A5
:10226C00D9F804309B00B0FBF3F7FFF7A5FE00EBA9
:10227C00800000EB8000D9F804309B00B0FBF3F336
:10228C00A6FB03235B0908FB13731B013233A6FB6C
:10229C000323C3F343131C44AC60BDE8F88300BFB5
:1022AC00003801401F85EB5168B310B5044690F817
:1022BC00393013F0FF0F04D1002380F83830FDF7CC
:1022CC0083FF242384F839302268D36823F4005325
:1022DC00D3602046FFF70AFF2268136923F490436A
:1022EC0013612268536923F02A0353612268D3686F
:1022FC0043F40053D3600020E063202384F839308A
:10230C0084F83A3010BD0120704700BF90F83A3085
:10231C00DBB2202B20D109B312B390F83830012B4B
:10232C0020D081628285C2850023C363222280F87B
:10233C003A2080F838300168CA6842F48072CA606A
:10234C0001684A6942F001024A610168CA6842F0B8
:10235C002002CA601846704702207047012070475F
:10236C000120704702207047704700BF08B5016814
:10237C00CB6823F04003CB60202380F83930FFF783
:10238C00F3FF002008BD00BF08B590F83A30DBB26F
:10239C00222B44D18368B3F5805F13D1826A036921
:1023AC0043B903685B68C3F308031380836A023381
:1023BC00836218E003685B68DBB21380836A0133C5
:1023CC00836210E0036933B9836A5A1C8262026823
:1023DC0052681A7007E0826A531C836203685B6858
:1023EC0003F07F031370C38D9BB2013B9BB2C3857B
:1023FC00BBB90268D36823F02003D3600268D368AA
:10240C0023F48073D3600268536923F00103536192
:10241C00202380F83A30FDF721FF002008BD022070
:10242C0008BD002008BD00BF704700BF10B50446B2
:10243C0002681368D168526913F00F0009D113F0C8
:10244C00200F06D011F0200F03D02046FFF79CFF81
:10245C0010BD002862D012F0010202D111F4907F5D
:10246C005CD013F0010F06D011F4807F03D0E06B29
:10247C0040F00100E06313F0040F04D01AB1E06BDC
:10248C0040F00200E06313F0020F04D01AB1E06BCD
:10249C0040F00400E06313F0080F04D01AB1E26BB3
:1024AC0042F00802E263E26B002A4AD013F0200FDC
:1024BC0005D011F0200F02D02046FFF765FF2368EE
:1024CC005B6903F04003E26B12F0080F00D1FBB123
:1024DC002046FFF7C7FD23685A6912F0400F13D04E
:1024EC005A6922F040025A61636B4BB1154A5A6328
:1024FC00606B00F03BF920B3606B436B984710BDE9
:10250C002046FFF791FF10BD2046FFF78DFF10BD51
:10251C002046FFF789FF0023E36310BD13F0800F03
:10252C0006D011F0800F03D02046FFF7A9FD10BD97
:10253C0013F0400F05D011F0400F02D02046FFF7EA
:10254C0015FF10BD5525000808B5406A0023C3854A
:10255C00C384FFF769FF08BD90F8393090F83A0052
:10256C001843704770B582B00023019390F8243063
:10257C00012B69D00446012380F8243001F0F6F8D1
:10258C00054600285BD1A36A23F4885323F0020389
:10259C0043F00203A3622E4B1E68022000F0BCF92C
:1025AC00B6FBF0F04000019002E0019B013B01936F
:1025BC00019B002BF9D1204600F0F6FF22689368AE
:1025CC0043F008039360FFF747FD06460FE0FFF763
:1025DC0043FD801B0A280AD9A36A23F0120343F097
:1025EC001003A362002384F8243001202DE023681B
:1025FC009A6812F0080FEAD19A6842F004029A60C5
:10260C00FFF72AFD06460FE0FFF726FD801B0A2880
:10261C000AD9A36A23F0120343F01003A362002328
:10262C0084F82430012010E023689B6813F0040F19
:10263C00EAD1A36A23F0030343F00103A36200234E
:10264C0084F82430284600E0022002B070BD00BFA0
:10265C007C01002070B4C56B066C0124B4406C6026
:10266C00046863604368102B04D103689A600368A4
:10267C00D96003E0036899600368DA6070BC704746
:10268C0000282FD010B403460068184A0244184999
:10269C00A1FB0212120992001A64164ADA63022292
:1026AC0083F82120026822F47F5121F030015C680C
:1026BC009A681443DA6814431A6914435A69144328
:1026CC009A691443DA6922430A4302600020986233
:1026DC00D862186358639863012283F8212083F829
:1026EC00200001E00120704710BC7047F8FFFDBFCF
:1026FC00CDCCCCCC0000024038B590F82040012C59
:10270C0032D0012480F8204090F82140012C26D1B1
:10271C000446022084F821000020A0632568286864
:10272C0020F0010028602046FFF794FFE36A2BB1EC
:10273C002268136843F00E03136009E022681368E3
:10274C0023F0040313602268136843F00A03136038
:10275C002268136843F001031360002038BD002386
:10276C0080F82030022038BD022038BD08B590F822
:10277C002130022B03D004238363012008BD02689F
:10278C00136823F00E0313600268136823F001032F
:10279C0013600368194A934211D01432934210D03B
:1027AC00143293420FD0143293420FD0143293420E
:1027BC000FD0143293420FD14FF480120EE001224D
:1027CC000CE010220AE04FF4807207E04FF48052C4
:1027DC0004E04FF4803201E04FF08072084B5A60F5
:1027EC00012380F82130002380F82030436B13B193
:1027FC009847002008BD002008BD00BF080002401B
:10280C000000024070B582B00446036813F0010F5B
:10281C005CD03E4BDB6913F0805F0BD13B4BDA692C
:10282C0042F08052DA61DB6903F080530193019B23
:10283C00012600E00026364B1B6813F4807F12D172
:10284C00334A136843F480731360FFF705FC0546A5
:10285C0004E0FFF701FC401B64284FD82C4B1B688D
:10286C0013F4807FF5D0294B1B6A13F4407321D0ED
:10287C00626802F4407293421CD0244A136A23F417
:10288C004070244901250D6000250D60106213F085
:10289C00010F0FD0FFF7E0FB054606E0FFF7DCFB6E
:1028AC00401B41F2883398422AD8184B1B6A13F00C
:1028BC00020FF3D015490B6A23F44072636813437B
:1028CC000B621EB1CB6923F08053CB61236813F0EC
:1028DC00020F06D00D494B6823F44042A368134302
:1028EC004B60236813F0100F0CD008494B6823F48D
:1028FC008002E36813434B60002004E0032002E0F5
:10290C00032000E0002002B070BD00BF00100240A8
:10291C00007000404004424270B586B006463B4D04
:10292C0002AC28686968AA68EB680FC42B8AADF8FA
:10293C000430022E4ED0102E02D0012E55D12DE097
:10294C00334B5A681B6813F0807F50D0C2F383431B
:10295C0006A90B4413F8103C12F480320ED02C490B
:10296C004968C1F3404106A8014411F8140C4AB15E
:10297C00284AB2FBF0F000FB03F004E0264800FB11
:10298C0003F000E00020224B5B6813F4800F3AD177
:10299C004000224BA3FB0030400834E01C4B1B6A68
:1029AC0040F202321A40B2F5817F22D003F4407318
:1029BC00B3F5007F04D1164A526A12F0020F1BD1F4
:1029CC00B3F5407F1BD1124B1B6813F4003F18D199
:1029DC00002018E0FFF700FB0D4B5B68C3F381335D
:1029EC0001335B00B0FBF3F00DE000200BE00020A6
:1029FC0009E04FF4004006E049F6404003E00020B7
:102A0C0001E04FF2244006B070BD00BF4444000802
:102A1C000010024000127A0000093D00ABAAAAAADD
:102A2C0084B001A880E80E00002004B0704700BFFD
:102A3C00B0F840309BB243F43F43A0F84030002044
:102A4C00704700BFB0F8403023F474535B045B0C48
:102A5C00A0F84030002070470020704784B038B593
:102A6C0005AC84E80E000123A0F840300024A0F847
:102A7C004040A0F84440A0F85040FFF7D9FF204652
:102A8C00BDE8384004B0704710B4CB78032B35D870
:102A9C00DFE803F002280F1B0A7830F822309BB2D3
:102AAC0023F4EC4323F0700343F4007320F822303A
:102ABC0024E00A7830F822309BB223F4EC4323F064
:102ACC0070039BB220F8223018E00A7830F82230DC
:102ADC009BB223F4EC4323F0700343F4C06320F85F
:102AEC0022300BE00A7830F822309BB223F4EC430E
:102AFC0023F0700343F4806320F822300A7830F816
:102B0C00223023F0F0031B051B0D134343F4004349
:102B1C0043F0800320F822308B7A002B40F08B801E
:102B2C004B7883B3B0F850309BB20A7803EBC203F6
:102B3C0000EB43038A8852085200C3F800240A7839
:102B4C0030F8223003F040039BB25BB130F82230F6
:102B5C0023F0F0031B051B0D43F4004343F0C003AB
:102B6C0020F822300A7830F822309BB223F4E0436C
:102B7C0023F0400383F0200343F4004343F080032D
:102B8C0020F822301BE1B0F850309BB20A7803EBEE
:102B9C00C203043300EB43038A8852085200C3F883
:102BAC000024B0F850309BB20A7803EBC203063312
:102BBC0000EB43030C693E2C0ED9C4F34F1214F0F6
:102BCC001F0F01D1013A92B26FEAC2626FEA524210
:102BDC0092B2C3F800240AE0C4F34F0214F0010FC0
:102BEC0001D0013292B2920292B2C3F800240A7858
:102BFC0030F8223003F480439BB25BB130F82230C2
:102C0C0023F0F0031B051B0D43F4404343F08003FA
:102C1C0020F822300A7830F822309BB223F480431B
:102C2C0023F0700383F4405343F4004343F08003D8
:102C3C0020F82230C3E00A7830F8223023F4F873FD
:102C4C001B051B0D43F4014343F0800320F8223095
:102C5C00B0F850309BB20A7803EBC20300EB43038D
:102C6C00CA8852085200C3F80024B0F850309BB206
:102C7C000A7803EBC203043300EB43030A895208BE
:102C8C005200C3F800244B78002B4DD10A7830F851
:102C9C00223003F480439BB25BB130F8223023F036
:102CAC00F0031B051B0D43F4404343F0800320F855
:102CBC0022300A7830F8223003F040039BB25BB12B
:102CCC0030F8223023F0F0031B051B0D43F40043B6
:102CDC0043F0C00320F822300A7830F8223023F079
:102CEC00F0031B051B0D43F4004343F0C00320F815
:102CFC0022300C7830F824309BB223F4804323F03C
:102D0C00700383F4405348F28002134320F82430BC
:102D1C00097830F821309BB223F4E04323F04003D0
:102D2C00134320F821304AE00A7830F8223003F4BB
:102D3C0080439BB25BB130F8223023F0F0031B05CB
:102D4C001B0D43F4404343F0800320F822300A78F3
:102D5C0030F8223003F040039BB25BB130F82230E4
:102D6C0023F0F0031B051B0D43F4004343F0C00399
:102D7C0020F822300A7830F8223023F0F0031B05BB
:102D8C001B0D43F4404343F0800320F822300C78B1
:102D9C0030F824309BB223F4E04323F0400348F294
:102DAC008002134320F82430097830F821309BB28C
:102DBC0023F4804323F07003134320F821300020C8
:102DCC0010BC70478B7A002B46D14B7813B30A7822
:102DDC0030F8223003F040039BB25BB130F8223064
:102DEC0023F0F0031B051B0D43F4004343F0C00319
:102DFC0020F822300A7830F822309BB223F4E043DA
:102E0C0023F0400343F4004343F0800320F82230C6
:102E1C00002070470A7830F8223003F480439BB2CC
:102E2C005BB130F8223023F0F0031B051B0D43F48B
:102E3C00404343F0800320F822300A7830F82230E7
:102E4C009BB223F4804323F0700343F4004343F01C
:102E5C00800320F82230DBE710B44B78002B4BD1E9
:102E6C000A7830F8223003F480439BB25BB130F81F
:102E7C00223023F0F0031B051B0D43F4404343F0B9
:102E8C00800320F822300A7830F8223003F0400317
:102E9C009BB25BB130F8223023F0F0031B051B0D05
:102EAC0043F4004343F0C00320F822300A7830F892
:102EBC00223023F0F0031B051B0D43F4004343F0B9
:102ECC00C00320F822300C7830F824309BB223F465
:102EDC00804323F0700348F28002134320F824301F
:102EEC00097830F821309BB223F4E04323F04003FF
:102EFC00134320F821304AE00A7830F8223003F4EA
:102F0C0080439BB25BB130F8223023F0F0031B05F9
:102F1C001B0D43F4404343F0800320F822300A7821
:102F2C0030F8223003F040039BB25BB130F8223012
:102F3C0023F0F0031B051B0D43F4004343F0C003C7
:102F4C0020F822300A7830F8223023F0F0031B05E9
:102F5C001B0D43F4404343F0800320F822300C78DF
:102F6C0030F824309BB223F4E04323F0400348F2C2
:102F7C008002134320F82430097830F821309BB2BA
:102F8C0023F4804323F07003134320F821300020F6
:102F9C0010BC70470A788AB930F822309BB223F4FF
:102FAC00804323F0400383F4805383F0100343F4F5
:102FBC00004343F0800320F8223020E04B787BB1B3
:102FCC0030F822309BB223F4E04323F0400383F02B
:102FDC00100343F4004343F0800320F822300EE04A
:102FEC0030F822309BB223F4804323F0700383F437
:102FFC00805343F4004343F0800320F82230002038
:10300C00704700BF4B781BB30A7830F8223003F0BE
:10301C0040039BB25BB130F8223023F0F0031B0568
:10302C001B0D43F4004343F0C00320F822300A7810
:10303C0030F822309BB223F4E04323F0400383F0BA
:10304C00300343F4004343F0800320F8223022E0A5
:10305C000A7830F8223003F480439BB25BB130F82D
:10306C00223023F0F0031B051B0D43F4404343F0C7
:10307C00800320F822300A7830F822309BB223F4F7
:10308C00804323F0700383F4405343F4004343F034
:10309C00800320F822300020704700BF11B9802334
:1030AC00A0F84C300020704700207047002070477B
:1030BC00B0F8440080B270470020704710B4013360
:1030CC005B1000EB420202F5806207E00C78487856
:1030DC0044EA002422F8044B0231013B002BF5D1C9
:1030EC0010BC704770B54A78012A40F0C2808E69D6
:1030FC000B699E4203D9F61A8E611E4601E000232D
:10310C008B610D4604468B7A83B9B3B28A884969C0
:10311C00FFF7D4FFB4F850309BB22A7803EBC2030C
:10312C00023304EB4303C3F8006491E0097830F8F0
:10313C00213003F040039BB29BB322BBB0F850305C
:10314C009BB203EBC101063100EB41013E2E0ED9BF
:10315C00C6F34F1316F01F0F01D1013B9BB26FEA60
:10316C00C3636FEA53439BB2C1F8003417E0C6F354
:10317C004F0316F0010F01D001339BB29B029BB29F
:10318C00C1F800340BE0012A09D1B0F850309BB2E1
:10319C0003EBC103023300EB4303C3F800642A8939
:1031AC0032E022BBB0F850309BB203EBC1010231CC
:1031BC0000EB41013E2E0ED9C6F34F1316F01F0F34
:1031CC0001D1013B9BB26FEAC3636FEA53439BB2DD
:1031DC00C1F8003417E0C6F34F0316F0010F01D00D
:1031EC0001339BB29B029BB2C1F800340BE0012A65
:1031FC0009D1B0F850309BB203EBC103023300EBA2
:10320C004303C3F80064EA88B3B269692046FFF748
:10321C0055FF6B786BB92A7834F8223023F0F00321
:10322C001B051B0D43F4004343F0C00324F822306C
:10323C000EE0012B0CD12A7834F8223023F0F00365
:10324C001B051B0D43F4404343F0800324F822304C
:10325C002A7834F822309BB223F4E04323F0400365
:10326C0083F0300343F4004343F0800324F822300E
:10327C00AAE08B690C69A34203D91B1B8B61234603
:10328C0001E000248C618C7A2CBBB0F8502092B2F7
:10329C000C7802EBC402063200EB42023E2B0ED934
:1032AC00C3F34F1413F01F0F01D1013CA4B26FEA0A
:1032BC00C4646FEA5444A4B2C2F8004474E0C3F38B
:1032CC004F0413F0010F01D00134A4B2A402A4B234
:1032DC00C2F8004468E02ABBB0F8502092B20C78D7
:1032EC0002EBC402023200EB42023E2B0ED9C3F3B6
:1032FC004F1413F01F0F01D1013CA4B26FEAC46448
:10330C006FEA5444A4B2C2F8004418E0C3F34F046B
:10331C0013F0010F01D00134A4B2A402A4B2C2F87C
:10332C0000440CE0012A0AD1B0F8502092B20C787B
:10333C0002EBC402023200EB4202C2F800344A78BB
:10334C002ABBB0F8502092B20C7802EBC4020632C1
:10335C0000EB42023E2B0ED9C3F34F1413F01F0F98
:10336C0001D1013CA4B26FEAC4646FEA5444A4B224
:10337C00C2F8004418E0C3F34F0413F0010F01D05E
:10338C000134A4B2A402A4B2C2F800440CE0012A95
:10339C000AD1B0F8502092B20C7802EBC40202327F
:1033AC0000EB4202C2F800340A7830F822309BB2AB
:1033BC0023F4804323F0700383F4405343F400431D
:1033CC0043F0800320F82230002070BD01335B10E5
:1033DC0000EB420202F5806204E0106821F8020B57
:1033EC00013B0432002BF8D1704700BF704700BF7F
:1033FC0008B5436A9A6A12F0500F1CD19A6A42F4CB
:10340C0000729A621A68926802F46022B2F5602F18
:10341C000DD1DA685AB99A6A22F480729A629A6A61
:10342C0012F4805F03D19A6A42F001029A62184644
:10343C00FFF7DCFF08BD1B6A1B6B984708BD00BF7C
:10344C00704700BF08B5406AFFF7FAFF08BD00BF20
:10345C00704700BF08B5406A836A43F0400383623B
:10346C00C36A43F00403C362FFF7F2FF08BD00BF59
:10347C0070B483B00023019390F82430012B00F03A
:10348C008880012380F824304B68062B0ED8066800
:10349C00756B03EB8303053B1F249C4025EA040456
:1034AC000A6802FA03F3234373631EE00C2B0ED855
:1034BC0005682A6B03EB8303233B1F249C4022EA01
:1034CC0004040A6802FA03F323432B630DE0056836
:1034DC00EA6A03EB8303413B1F249C4022EA040469
:1034EC000A6802FA03F32343EB620B68092B0ED92B
:1034FC000668F56803EB43031E3B07249C4025EA52
:10350C0004048A6802FA03F32343F3600CE00668B0
:10351C00356903EB430307249C4025EA04048A68BD
:10352C0002FA03F3234333610B68103B012B26D8BB
:10353C0003681A4A93421CD19A6812F4000F20D1E6
:10354C009A6842F400029A600B68102B1BD1144B42
:10355C001B68144AA2FB03239B0C03EB83035A0046
:10356C00019202E0019B013B0193019B002BF9D1DD
:10357C000AE0836A43F020038362012304E0002302
:10358C0002E0002300E00023002280F824201846EB
:10359C0000E0022003B070BC704700BF0024014063
:1035AC007C01002083DE1B4330B583B000230193E4
:1035BC0003689A6812F0010F2FD19A6842F0010249
:1035CC009A60174B1B68174AA2FB03239B0C0193B1
:1035DC0002E0019B013B0193019B002BF9D10446B6
:1035EC00FEF73AFD054611E0FEF736FD401B0228BA
:1035FC000CD9A36A43F01003A362E36A43F00103FE
:10360C00E362002384F82430012007E023689B68E0
:10361C0013F0010FE8D0002000E0002003B030BD13
:10362C007C01002083DE1B43F8B504684A4DAC4294
:10363C0003D005F58065AC4205D1474B5B6813F4AC
:10364C00702F40F0858090F82440012C00F082808F
:10365C0017460E460446012380F82430FFF7A4FFDA
:10366C000546002870D1A36A23F4706323F001038C
:10367C0043F48073A3622268384B9A4205D1A3F5B8
:10368C0080635B6813F4702F0ED1A36A23F480134C
:10369C00A362536813F4806F1CD0A36A23F44053C5
:1036AC0043F48053A36215E0A36A43F48013A3622E
:1036BC00294B9A4203D003F580639A420AD1264BD8
:1036CC005B6813F4806F05D0A36A23F4405343F472
:1036DC008053A362A36A13F4805F04D0E36A23F0DF
:1036EC000603E36201E00023E362002384F8243044
:1036FC00236A1B4A9A62236A1A4ADA62236A1A4AB2
:10370C001A6323686FF002021A602268936843F40C
:10371C008073936021683B4632464C31206AFEF739
:10372C00EBFF2268936803F46023B3F5602F05D197
:10373C00936843F4A00393602846F8BD936843F460
:10374C00801393602846F8BD002384F82430F8BD1C
:10375C000120F8BD0220F8BD0024014000280140E2
:10376C00FD330008513400086134000838B5036893
:10377C009A6812F0010F1ED004469A6822F00102DA
:10378C009A60FEF769FC05460EE0FEF765FC401BEF
:10379C00022809D9A36A43F01003A362E36A43F039
:1037AC000103E362012038BD23689B6813F0010F0D
:1037BC00EBD1002038BD002038BD00BF00287DD0E3
:1037CC0038B50446836A23B9C36280F82430FCF709
:1037DC0051FF2046FFF7CAFFA36A13F0100F67D101
:1037EC00002865D1A36A23F4885323F0020343F025
:1037FC000203A3626268E3691343E16843EA41038D
:10380C00A268B2F5807F04D0012A05D14FF48075EF
:10381C0003E04FF4807500E000256269012A0FD1A6
:10382C0031B9A269013A45EA423242F4006507E037
:10383C00A26A42F02002A262E26A42F00102E26253
:10384C0021684A6822F469422A434A6021688D68DB
:10385C001B4A2A401A438A60A268B2F5807F01D0C5
:10386C00012A03D12269013A110500E000212568E3
:10387C00EA6A22F470020A43EA6222689168114AE9
:10388C000A40934208D10023E362A36A23F00303A6
:10389C0043F00103A36238BDA36A23F0120343F083
:1038AC001003A362E36A43F00103E362012038BD15
:1038BC00A36A43F01003A362012038BD01207047B6
:1038CC00FDF7E1FFFE0E1FFF074AD36823F4E06308
:1038DC001B041B0C000200F4E060184340F0BF60B6
:1038EC0040F40030D060704700ED00E030B4164B6F
:1038FC00DB68C3F30223C3F10704042C28BF0424A0
:10390C001D1D062D01D9DD1E00E00025012303FA43
:10391C0004F4013C2140A940AB40013B1A400A434E
:10392C00002806DA00F00F001201D2B2074B1A542D
:10393C0007E01201D2B200F1604000F5614080F85E
:10394C00002330BC704700BF00ED00E014ED00E038
:10395C00420900F01F00012303FA00F0014B43F869
:10396C002200704700E100E00138B0F1807F0AD2FC
:10397C00064B5860F021064A82F82310002098600C
:10398C0007221A6070470120704700BF10E000E06A
:10399C0000ED00E0042805D1054A136843F0040348
:1039AC0013607047024A136823F0040313607047D6
:1039BC0010E000E0002867D0F0B587B0044690F81E
:1039CC00293413F0FF0F04D1002380F82834FCF7BE
:1039DC0097FC032384F829342068FFF733F8254635
:1039EC0055F8107B6E460FCD0FC62B683360231D28
:1039FC000ECB3846FFF714F800212068FFF72CF89F
:103A0C00002310E004EB4312012182F8291082F804
:103A1C0028309386002182F82B109163D1639A1C75
:103A2C005201A15001330E2BECD9002312E004EB10
:103A3C004312002182F8291282F82832938682F8E8
:103A4C002B12C2F83812C2F83C1203F112025201C6
:103A5C00A15001330E2BEAD9254655F8107B6E4642
:103A6C000FCD0FC62B683360231D0ECB3846FEF7E7
:103A7C00F5FF002584F82450012384F829342068AC
:103A8C00FFF714FB284601E00120704707B0F0BD9A
:103A9C0090F82834012B10D010B50446012180F881
:103AAC002814FCF773FD2068FFF7FEFA2068FEF778
:103ABC00BFFF002084F8280410BD0220704700BF0F
:103ACC0090F82834012B0DD010B50446012380F852
:103ADC00283480F824100068FFF7E0FA002084F8FE
:103AEC00280410BD0220704738B54DB2002D05DA00
:103AFC0001F07F0464012834044405E001F07F04E4
:103B0C00640104F50A74044401F07F012170ED0F87
:103B1C0065702261E37090F82834012B0BD00546B8
:103B2C00012380F8283421460068FEF7ADFF002001
:103B3C0085F8280438BD022038BD00BF4AB2002ADF
:103B4C0005DA01F07F035B012833034405E001F043
:103B5C007F035B0103F50A73034401F07F011970C5
:103B6C00D20F5A7090F82824012A0CD010B50446B4
:103B7C00012280F8282419460068FFF723F9002059
:103B8C0084F8280410BD0220704700BF70B501F006
:103B9C007F056C0104F50A7101440444C4F83C220D
:103BAC0005F112025201861883500023736084F8C9
:103BBC00293284F828521DB90068FFF793FA02E005
:103BCC000068FFF78FFA002070BD00BF01F00F01F5
:103BDC00123100EB41108088704700BF70B501F0C6
:103BEC007F056C0104F1280101440444E263AA1C22
:103BFC0052018618835000237360012384F8293006
:103C0C0084F828501DB90068FFF76CFA02E00068D0
:103C1C00FFF768FA002070BD70B582B0054600232E
:103C2C00ADF80630ADF8043016E2BDF8064014F0DD
:103C3C000F0440F0C880BDF8063003F010039BB2AF
:103C4C009BBB03889BB223F4E14323F070039BB22C
:103C5C0003802968B1F850309AB295F8283002EBFD
:103C6C00C303023301EB4303D3F80034C3F309035A
:103C7C006B64EA6B1344EB6300212846FCF772FB80
:103C8C0095F8243013F0FF0F00F0E6812B6C002B1D
:103C9C0040F0E2812A6895F8243043F08003A2F8C2
:103CAC004C30002385F82430D6E103889BB2ADF864
:103CBC000430BDF8043003F400639BB203B3B0F8D6
:103CCC0050309BB295F8282203EBC203063300EB6D
:103CDC004303D3F80034C3F30903C5F84432B5F8F1
:103CEC002C2205F22C41FFF771FB2A68138823F074
:103CFC0070031B051B0D13802846FCF721FBABE161
:103D0C00BDF8043013F4004F00F0A681038823F0B3
:103D1C0070031B051B0D03802868B0F850309BB254
:103D2C0095F8282203EBC203063300EB4303D3F8C8
:103D3C000034C3F30903C5F8443263B1B5F82C223F
:103D4C00D5F83C12FFF742FBD5F83C22D5F84432AB
:103D5C001344C5F83C3200212846FCF7F9FA2A68CE
:103D6C00B2F850309BB2063302EB4303D5F838124D
:103D7C003E290ED9C1F34F1211F01F0F01D1013A98
:103D8C0092B26FEAC2626FEA524292B2C3F8002456
:103D9C000AE0C1F34F0211F0010F01D0013292B2CF
:103DAC00920292B2C3F800242A6813889BB223F4BF
:103DBC00804323F0700383F4405343F4004343F0F7
:103DCC008003138048E130F824309BB2ADF8043006
:103DDC00BDF8043013F4004F00F0968030F8243016
:103DEC0023F070031B051B0D20F8243005EB441346
:103DFC0093F83232E3B92868B0F850309BB205EB37
:103E0C00441292F8282203EBC203063300EB43035F
:103E1C00B3F80064C6F30906002E52D005EB44112A
:103E2C003346B1F82C22D1F83C12FFF7CFFA48E018
:103E3C00286805EB441393F8281230F8213003F46A
:103E4C0080439BB2B3B1B0F8502092B202EBC103E5
:103E5C00023300EB4303B3F80064C6F30906FEB16A
:103E6C0005EB44113346B1F82E22D1F83C12FFF782
:103E7C00ADFA15E0B0F850309BB203EBC10306333A
:103E8C0000EB4303B3F80064C6F3090646B105EB37
:103E9C0044113346B1F83022D1F83C12FFF796FAB0
:103EAC002A6805EB441393F8281232F8213023F0DA
:103EBC00F0031B051B0D43F4004343F0C00322F831
:103ECC00213004F112035B01E9184A6832444A605C
:103EDC0005EB4411D1F83C223244C1F83C22EB589A
:103EEC001BB1D1F838128E4207D205EB441393F86C
:103EFC0028122846FCF72CFA06E005EB441191F841
:103F0C0028122846FFF742FEBDF8043003F0800368
:103F1C009BB2002B00F0A0802A6832F824309BB2B0
:103F2C0023F4E14323F070039BB222F8243005EB19
:103F3C00441393F83230EBB92868B0F850309BB288
:103F4C0005EB441292F8282003EBC203023300EB7A
:103F5C004303D3F80034C3F30903A21C05EB42124C
:103F6C005360002B51D005EB44118A8DC96BFFF7C0
:103F7C00A5F84AE0286805EB441393F8281030F8AC
:103F8C00213003F040039BB2BBB1B0F8502092B289
:103F9C0002EBC103023300EB4303D3F80034C3F349
:103FAC000903A21C05EB42125360EBB105EB441163
:103FBC00CA8DC96BFFF782F816E0B0F850309BB28F
:103FCC0003EBC103063300EB4303D3F80034C3F314
:103FDC000903A21C05EB421253602BB105EB4411F3
:103FEC000A8EC96BFFF76AF82A6805EB441393F83D
:103FFC00281032F8213023F0F0031B051B0D43F47D
:10400C00404343F0800322F821302968B1F8503046
:10401C009AB205EB441090F8283002EBC30302333C
:10402C0001EB4303D3F80034C3F30903A11C49018A
:10403C006A185360C26B1A44C2636B582BB990F860
:10404C0028102846FCF78EF906E005EB441494F88A
:10405C0028102846FFF7C2FD2868B0F844309BB200
:10406C00ADF8063013F4004F7FF4DFAD002002B042
:10407C0070BD00BF10B504460068FFF719F810F4C6
:10408C00004F02D02046FFF7C7FD2068FFF710F85D
:10409C0010F4806F0FD02268B2F844309BB223F436
:1040AC0080639BB2A2F844302046FCF76BF90021E8
:1040BC002046FFF705FD2068FEF7FAFF10F4804F4D
:1040CC0008D02268B2F844309BB223F480439BB2F0
:1040DC00A2F844302068FEF7EBFF10F4005F08D024
:1040EC002268B2F844309BB223F400539BB2A2F87E
:1040FC0044302068FEF7DCFF10F4805F1DD022688E
:10410C00B2F840309BB223F004039BB2A2F84030CB
:10411C002268B2F840309BB223F008039BB2A2F89D
:10412C0040302046FCF74AF92268B2F844309BB282
:10413C0023F480539BB2A2F844302068FEF7B8FFFA
:10414C0010F4006F21D02268B2F840309BB243F0DB
:10415C000803A2F840302268B2F844309BB223F432
:10416C0000639BB2A2F844302268B2F840309BB294
:10417C0043F00403A2F840302068FEF799FF10F4D6
:10418C00805F02D12046FCF709F92068FEF790FF0A
:10419C0010F4007F0BD02268B2F844309BB223F4A9
:1041AC0000739BB2A2F844302046FCF7E5F8206877
:1041BC00FEF77EFF10F4807F08D02268B2F84430FE
:1041CC009BB223F480739BB2A2F8443010BD00BFA5
:1041DC0038B54AB2002A05DA01F07F035B012833B7
:1041EC00034403E04B0103F50A73034401249C7060
:1041FC0001F07F041C70D20F5A7090F82824012A09
:10420C0011D00546012280F8282419460068FEF7D3
:10421C00C1FE24B905F22C412868FEF74DFF0020A1
:10422C0085F8280438BD022038BD00BF10B54AB24D
:10423C00002A05DA01F07F035B012833034403E015
:10424C004B0103F50A73034400249C7001F07F01B9
:10425C001970D20F5A7090F82824012A0BD00446FA
:10426C00012280F8282419460068FEF7CBFE0020B6
:10427C0084F8280410BD022010BD00BF0F4B1A6833
:10428C0042F001021A6059680D4A0A405A601A68D5
:10429C0022F0847222F480321A601A6822F480228E
:1042AC001A605A6822F4FE025A604FF41F029A6098
:1042BC004FF00062034B9A60704700BF0010024041
:1042CC000000FFF800ED00E0002103E00B4B5B5811
:1042DC00435004310A480B4B42189A42F6D30A4A0F
:1042EC0002E0002342F8043B084B9A42F9D3FFF753
:1042FC00C5FF00F00FF8FCF74DFB7047EC490008C8
:10430C00000000205003002050030020743B0020CC
:10431C00FEE700000E4B70B51E460E4C0025E41A4D
:10432C00A410A54204D056F8253098470135F8E77B
:10433C0000F06CF8084B094C1E46E41AA41000253A
:10434C00A54204D056F8253098470135F8E770BDE2
:10435C00E4490008E4490008E4490008E849000879
:10436C00F8B506460F4616F8014B00F025F8204428
:10437C00437817F8015B03F00303012B08BF2034CB
:10438C0000F01AF82844437803F00303012B14BF00
:10439C002B4605F12003E01A01D1002BE3D1F8BD27
:1043AC00034B1B68186A034B002808BF184670475C
:1043BC00E0010020E401002008B5034B1868FFF76A
:1043CC00EFFFD0F8EC0008BDE001002082B001B98D
:1043DC0001A93AB143B113780B601278101C18BFC5
:1043EC00012003E0104601E06FF0010002B07047BD
:1043FC0049B1FF2A85BF8A2303600A704FF0FF3052
:10440C0098BF01207047084670470000F8B500BF00
:10441C00F8BC08BC9E467047F8B500BFF8BC08BC99
:04442C009E467047F1
:1044300002030405060708090A0B0C0D0E0F1010E5
:104440000102000002030405060708090A0B0C0D0F
:104450000E0F101001020000434845434B000000BE
:10446000434845434B204D6F64653A2000000000EF
:1044700045444954000000002D2D2D2D2D2D2D2DAE
:104480002D2D2D2D202045444954204D6F6465204D
:10449000202D2D2D2D2D2D2D2D2D2D2D2D0A0000D6
:1044A000636865636B0D0A00454449540D0A0000BA
:1044B00056616C7565206F6620746865207A657238
:1044C0006F28737567676573742076616C756520F6
:1044D00031303030293A2000446574656374696F67
:1044E0006E3A204661696C65642C2046414E206E10
:1044F0006F7420576F726B20212121200A00000069
:10450000446574656374696F6E3A204F4B2C204686
:10451000414E20697320576F726B2021200A0000E2
:104520002D2D2D3E2073656E642022434845434B5C
:104530002220746F2072657475726E20746F206E05
:104540006F726D616C206D6F64652021200A000020
:104550002D2D2D3E2073656E642022454449542242
:1045600020676F20746F206465627567206D6F64CB
:10457000652C2073756767657374207A65726F2088
:1045800076616C75653A20313030302021200A0088
:104590002D2D2D3E2056616C7565206F6620746848
:1045A00065207A65726F3A200000000046697874D1
:1045B000757265204572726F72202120506C6561A2
:1045C000736520636865636B207468652076616C31
:1045D0007565206F6620746865207A65726F207338
:1045E0006C6964696E67207268656F7374617421A9
:1045F000200A0000090D0A09232323232323232350
:10460000232323232323232323232323232323237A
:10461000232323232323232323232323232323236A
:10462000232323232323232323232323232323235A
:10463000232323232323232323232323232323234A
:1046400023230D0A092D2D2D2D2D20202020202063
:10465000202020202020202020205842362F584281
:10466000372046414E20446574656374696F6E203F
:104670004669787475726520202020202020202033
:10468000202020202020202020202D2D2D2D2D0DFC
:104690000A092D2D2D2D2D20202020202020202006
:1046A0002020202020446574656374696F6E206F3C
:1046B00066206D61676E65746963206669656C6408
:1046C000206D6F746F722020202020202020202059
:1046D000202020202020202D2D2D2D2D0D0A092DCC
:1046E0002D2D2D2D20202020202020202020202096
:1046F00020202020202020202020202020202020BA
:1047000020202020204669726D77617265205665F1
:104710007273696F6E2056312E312D32303139303F
:10472000333237202D2D2D2D2D0D0A092D2D2D2D18
:104730002D20202020546F6F6C73206279207468C4
:104740006520466F78636F6E6E204361626C6520F2
:10475000536F6674576172652052264420746561F8
:104760006D2E20202020323031382F31312F323140
:10477000202D2D2D2D2D0D0A092323232323232323
:1047800023232323232323232323232323232323F9
:1047900023232323232323232323232323232323E9
:1047A00023232323232323232323232323232323D9
:1047B00023232323232323232323232323232323C9
:1047C0002323230D0A09484F5720544F20555345A2
:1047D0003A200D0A2009436F6D6D616E642022201E
:1047E000434845434B20223A4E6F726D616C206DF9
:1047F0006F64652C20636865636B20746865206D49
:104800006F746F722073746174652E200D0A200915
:10481000436F6D6D616E642022204544495420220F
:104820003A4465627567206D6F64652C2063686526
:10483000636B207468652076616C7565206F6620F7
:10484000746865207A65726F20736C6964696E673D
:10485000207268656F737461742E200D0A20090937
:1048600000000000466F78636F6E6E2046414E2058
:104870005465737420466978747572650000000091
:10488000466F78636F6E6E2D4C482D4350454742FE
:104890004244000030303030303030303030314140
:1048A0000000000043444320436F6E6669670000C8
:1048B00043444320496E746572666163650000007D
:1048C00000000000000000000102030406070809C0
:1048D00000000000010203044300504F53495800F8
:1048E0002E000020202020202020202028282828DA
:1048F00028202020202020202020202020202020B0
:1049000020202088101010101010101010101010FF
:10491000101010040404040404040404041010100F
:1049200010101010414141414141010101010101BB
:104930000101010101010101010101010101101049
:10494000101010104242424242420202020202028F
:10495000020202020202020202020202020210101B
:104960001010200000000000000000000000000007
:104970000000000000000000000000000000000037
:104980000000000000000000000000000000000027
:104990000000000000000000000000000000000017
:1049A0000000000000000000000000000000000007
:1049B00000000000000000000000000000000000F7
:1049C00000000000000000000000000000000000E7
:1049D00000000000000000000000000000000000D7
:0449E00000000000D3
:0449E4003101000895
:0449E8000D010008B5
:1049EC00000D0A00000000000508000899070008E7
:1049FC009D070008A1070008D8440008B04400082F
:104A0C00F4450008AC450008004500089045000836
:104A1C0050450008204500084D0C0008590C0008B2
:104A2C00890C0008650C0008A50C0008C90C0008CE
:104A3C00ED0C0008040309041201000202020040FC
:104A4C0083044057000201020301000009024300E5
:104A5C00020100C032090400000102020100052419
:104A6C0000100105240100010424020205240600A3
:104A7C00010705820308001009040100020A000066
:104A8C0000070501024000000705810240000000FC
:104A9C005516000819160008A5150008000000009E
:104AAC001D15000809150008751500080000000008
:104ABC00000000000000000051150008451500081A
:104ACC005D150008691500080A0600020000004088
:104ADC000100000009074300020104C03209040070
:104AEC00000102020100052400100105240100014F
:104AFC00042402020524060001070582030800FFB6
:104B0C0009040100020A0000000705010240000030
:104B1C00070581024000000009024300020100C0A9
:104B2C0032090400000102020100052400100105F5
:104B3C002401000104240202052406000107058259
:104B4C000308001009040100020A00000007050117
:104B5C0002000200070581020002000000A24A04C4
:104B6C000000000000000000000000000000000039
:104B7C000000000000000000000000000000000029
:104B8C000000000000000000000000000000000019
:104B9C000000000000000000000000000000000009
:104BAC0000000000000000000000000000000000F9
:104BBC0000000000000000000000000000000000E9
:104BCC0080010020430000000000000000000000F5
:104BDC0000000000000000000000000000000000C9
:104BEC000000000043000000000000000000000076
:104BFC0000000000000000000000000000000000A9
:104C0C000000000043000000000000000000000055
:104C1C000000000000000000000000000000000088
:104C2C000000000043000000000000000000000035
:104C3C000000000000000000000000000000000068
:104C4C000000000043000000000000000000000015
:104C5C000000000000000000000000000000000048
:104C6C0000000000430000000000000000000000F5
:104C7C000000000000000000000000000000000028
:104C8C0000000000430000000000000000000000D5
:104C9C000000000000000000000000000000000008
:104CAC0000000000FD430008D9430008000000008C
:104CBC00E2480008E0480008E1480008E148000824
:104CCC00E1480008E1480008E1480008E148000814
:104CDC00E1480008E1480008E1480008FFFFFFFF39
:104CEC00FFFFFFFFFFFFFFFFFFFF0000010041532D
:104CFC0043494900000000000000000000000000D3
:104D0C000000000000000000000000000000415303
:104D1C0043494900000000000000000000000000B2
:104D2C000000000000000000000000000000000077
:04000005080042D5D8
:00000001FF
