:020000040800F2
:10000000FF4F00203D200008690100086D01000835
:100010007101000875010008790100080000000066
:100020000000000000000000000000007D0100084A
:100030008101000800000000850100088901000816
:1000400085200008852000088520000885200008FC
:1000500085200008852000088520000885200008EC
:1000600085200008852000088520000885200008DC
:1000700085200008852000088520000885200008CC
:1000800085200008852000088520000885200008BC
:1000900085200008852000088520000885200008AC
:1000A000852000088520000885200008852000089C
:1000B000852000088520000885200008852000088C
:1000C000852000088520000885200008852000087C
:1000D00085200008410500088520000885200008CB
:1000E0008520000885200008852000080000000009
:1000F0000000000000000000000000000000000000
:0C01000000000000000000005FF808F1A3
:10010C0010B5054C237833B9044B13B10448AFF345
:10011C0000800123237010BD680000200000000047
:10012C002C2A0008084B10B51BB108490848AFF33E
:10013C0000800848036803B910BD074B002BFBD0A7
:10014C00BDE81040184700BF000000006C00002004
:10015C002C2A00086800002000000000704700BF37
:10016C00FEE700BFFEE700BFFEE700BFFEE700BFF3
:10017C00704700BF704700BF704700BF08B500F064
:10018C003BFB08BD00B591B0012306934FF48033BF
:10019C0007930022089202220D920E930F9006A84C
:1001AC0000F040FC00B1FEE70F2301930221029105
:1001BC00002303934FF480620492059301A800F08E
:1001CC0069FE00B1FEE711B05DF804FB30B4002508
:1001DC004FF6FF7212E0435D5A4000230AE012F022
:1001EC00010F04D04AF2010484EA520200E05208E2
:1001FC000133DBB2072BF2D90135EDB28D42EAD3D4
:10020C00104630BC704700BF00B589B00023049382
:10021C0005930693079301930293ADF80C3009E014
:10022C0008AA02EB8302194931F8231042F8101C7A
:10023C000133DBB2032BF3D9002311E05A0008A9D8
:10024C0001EB830151F8101C08A8104400F81C1C89
:10025C000132090A08A8024402F81C1C0133DBB263
:10026C00032BEBD9082101A8FFF7B0FF8DF80C0088
:10027C00000A8DF80D004FF47A730A2201A9044884
:10028C0001F078F809B05DF804FB00BF980000207D
:10029C00A800002038B500F09DFA4FF4E010FFF7ED
:1002AC0071FF482000F0D8F94FF4E13000F0A0F8CD
:1002BC0000F07AF800F054F900242E4B1D8815F448
:1002CC00004F16D02C4801F061FF4FF47A73EAB25C
:1002DC002A492B4801F04EF8294B1B681B6813F078
:1002EC00400FF9D0274801F051FF0022214B1A8012
:1002FC0030E00134A4B2244BA3FB04231B0B41F2CA
:10030C00883202FB13439BB22BB9204801F03EFF0D
:10031C001F4801F03BFF1F4BA3FB04239B09C82282
:10032C0002FB13439BB213B91B4801F02FFF1B4B6D
:10033C00A3FB04231B09C3EB03135A00A21A92B2AA
:10034C002AB9174A1368B3FA83F35B0913600A20BE
:10035C0000F0AAF90521012000F068F9104A136891
:10036C00B3FA83F35B0913600E4B1860FFF74CFF75
:10037C00A3E700BF840000206C2A0008EC000020DA
:10038C00A8000020882A00085917B7D18C2A000829
:10039C00B82A00081F85EB51D42A00088988888860
:1003AC00B40122429800002070B586B00E4B9A69B9
:1003BC0042F010029A619B6903F010030193019BB8
:1003CC004FF40056029601240394049403230593DE
:1003DC00064D02A9284600F01DFA22463146284651
:1003EC0000F004FB06B070BD00100240001001408C
:1003FC0010B50A4C0A4B236060600023A360E360D5
:10040C002361A3610C236361204600F081FF01226C
:10041C000449204601F020F810BD00BFA8000020C0
:10042C0000380140E80000200268224B9A423FD17C
:10043C0030B589B003F558439A6942F004029A61C9
:10044C009A6902F004020192019A9A6942F480427C
:10045C009A619A6902F480420292029A9A6942F075
:10046C0001029A619B6903F001030393039B4FF410
:10047C00007304930223059301230693032407942A
:10048C000D4D04A9284600F0C5F94FF48063049380
:10049C000023059304A9284600F0BCF9252001F09F
:1004AC00C3F922462146252001F08CF909B030BD54
:1004BC00704700BF00380140000801400268194B2A
:1004CC009A422DD1184B1B8813F4004F28D103F4FA
:1004DC00804292B272B1154A12780A2A03D00022D5
:1004EC00114B1A8070476FEA43436FEA53430E4A2D
:1004FC00138070470D4A12780D2A04D143F48043BF
:10050C00094A13807047C3F30D0109484254013363
:10051C009BB2054A1380C72B02D90022024B1A80CA
:10052C00704700BF0038014084000020E800002024
:10053C00EC00002008B5084801F01EF8064801F050
:10054C00B1F82028FAD101220449034800F084FFB5
:10055C000028F8D108BD00BFA8000020E80000204A
:10056C0010B584B0022300934FF400430293684605
:10057C0001F050FC0A4C0B4B236000236360A3601A
:10058C00E360012222616361A3614FF46023E361A4
:10059C00204601F0B9FB204601F08AF804B010BDEA
:1005AC001C0200200024014000B587B00F4B9A6953
:1005BC0042F400729A619A6902F400720092009AF5
:1005CC009A6942F004029A619B6903F00403019357
:1005DC00019B02230293032303930023049302A998
:1005EC00034800F017F907B05DF804FB0010024057
:1005FC000008014010B584B0019001230293072339
:10060C000393094C01A9204601F0FEF9204601F0A4
:10061C00D7FA0A21204601F039F9204601F0F0F909
:10062C0080B204B010BD00BF1C020020F8B5074614
:10063C000E460024254608E03846FFF7DBFF05444C
:10064C00052000F031F80134E4B2B442F4D3B5FB28
:10065C00F6F080B2F8BD00BF10B50446042001F0DE
:10066C0005F9014B1C6010BD8800002030B40C4A09
:10067C0055680C4B1B6800FB03F0936800211A466D
:10068C00074B9B689A42FBD002D9D21A114402E064
:10069C00EC1A224411448142F1D330BC704700BFA4
:1006AC0010E000E08800002038B50546002404E086
:1006BC004FF47A70FFF7DAFF0134AC42F8D338BD4F
:1006CC00704700BF0F4B1A6842F001021A6059685C
:1006DC000D4A0A405A601A6822F0847222F4803261
:1006EC001A601A6822F480221A605A6822F4FE02F8
:1006FC005A604FF41F029A604FF00062034B9A60ED
:10070C00704700BF001002400000FFF800ED00E051
:10071C0008B590F82130022B03D004238363012009
:10072C0008BD0268136823F00E0313600268136897
:10073C0023F0010313600368194A934211D0143259
:10074C00934210D0143293420FD0143293420FD0F4
:10075C00143293420FD0143293420FD14FF48012C3
:10076C000EE001220CE010220AE04FF4807207E048
:10077C004FF4805204E04FF4803201E04FF080726D
:10078C00084B5A60012380F82130002380F8203078
:10079C00436B13B19847002008BD002008BD00BF73
:1007AC00080002400000024010B50446074B1B68CD
:1007BC000748A0FB0330800901F042F800222146D3
:1007CC004FF0FF3000F0FEFF002010BD00000020B5
:1007DC00D34D621008B5074A136843F01003136039
:1007EC00032000F0DDFF0F20FFF7DEFFFFF768FFAF
:1007FC00002008BD00200240024A13680133136038
:10080C00704700BF4C020020014B1868704700BFB6
:10081C004C020020F0B583B000263446D5E001220E
:10082C00A2400B6813409A4240F0CE804D68122DC6
:10083C002DD00BD8022D27D003D85DB3012D1ED09F
:10084C0035E0032D30D0112D1BD030E0614FBD426F
:10085C0020D008D8A7F58017BD421BD007F58037EC
:10086C00BD4224D116E05C4FBD4213D007F5803752
:10087C00BD420FD0A7F58017BD4218D10AE0CE6853
:10088C0015E0CE68043612E0CE6808360FE0CE686C
:10089C000C360CE08D684DB1012D02D10261082699
:1008AC0005E04261082602E0002600E00426FF2B4A
:1008BC0001D8864601E000F1040EFF2B01D8A200FE
:1008CC0002E0A4F108029200DEF800700F259540BA
:1008DC0027EA050506FA02F22A43CEF800204A68F8
:1008EC0012F0805F70D03D4A956945F00105956125
:1008FC00926902F001020192019AA708BD1C384AC4
:10090C0052F8255004F0030292004FF00F0E0EFA2D
:10091C0002FE25EA0E0E334DA8420DD005F580657A
:10092C00A8420BD005F58065A84209D005F5806575
:10093C00A84207D1032506E0002504E0012502E0CA
:10094C00022500E0042505FA02F24EEA0202023703
:10095C00234D45F827204A6812F4803F05D005F551
:10096C0080652A681A432A6004E01F4D2A6822EA2F
:10097C0003022A604A6812F4003F04D01A4D6A68D8
:10098C001A436A6004E0184D6A6822EA03026A603E
:10099C004A6812F4801F04D0134DAA681A43AA6047
:1009AC0004E0114DAA6822EA0302AA604A6812F414
:1009BC00001F04D00C4DEA681343EB6004E00A4DB1
:1009CC00EA6822EA0303EB6001340F2C7FF627AFB1
:1009DC0003B0F0BD000021100000311000100240E7
:1009EC000000014000080140000401400AB101610F
:1009FC00704709040161704782B0084B1B68084AB4
:100A0C00A2FB03235B0A00FB03F0019000BF019BD8
:100A1C005A1E0192002BF9D102B070470000002041
:100A2C00D34D621070B582B00446036813F0010F09
:100A3C006BD0A84B5B6803F00C03042B0AD0A54BBE
:100A4C005B6803F00C03082B0DD1A24B5B6813F40D
:100A5C00803F08D09F4B1B6813F4003F55D0636850
:100A6C00002B52D1B8E16368B3F5803F05D1994AA8
:100A7C00136843F48033136026E063B903F18043B9
:100A8C0003F504331A6822F480321A601A6822F4CF
:100A9C0080221A6018E0B3F5A02F0CD103F180432B
:100AAC00A3F53C331A6842F480221A601A6842F4A7
:100ABC0080321A6008E0874B1A6822F480321A6080
:100ACC001A6822F480221A6063687BB1FFF79CFEDF
:100ADC00054605E0FFF798FE401B642800F27E8176
:100AEC007C4B1B6813F4003FF4D00EE0FFF78CFE38
:100AFC00054605E0FFF788FE401B642800F2708174
:100B0C00744B1B6813F4003FF4D1236813F0020FED
:100B1C0050D0704B5B6813F00C0F0AD06D4B5B68B8
:100B2C0003F00C03082B16D16A4B5B6813F4803F5F
:100B3C0011D1684B1B6813F0020F03D02369012BF2
:100B4C0040F05081634A136823F0F803616943EA6B
:100B5C00C10313602EE02369D3B101225E4B1A60EE
:100B6C00FFF752FE054605E0FFF74EFE401B02283C
:100B7C0000F23A81574B1B6813F0020FF4D0554A20
:100B8C00136823F0F803616943EAC103136011E0B1
:100B9C000022514B1A60FFF737FE054605E0FFF7C0
:100BAC0033FE401B022800F221814A4B1B6813F0D4
:100BBC00020FF4D1236813F0080F29D0A369ABB14D
:100BCC000122464B1A60FFF71FFE054605E0FFF7B2
:100BDC001BFE401B022800F20B813E4B5B6A13F09C
:100BEC00020FF4D00120FFF707FF11E000223B4B6E
:100BFC001A60FFF709FE054605E0FFF705FE401BEE
:100C0C00022800F2F780334B5B6A13F0020FF4D129
:100C1C00236813F0040F00F089802E4BDB6913F06E
:100C2C00805F0BD12B4BDA6942F08052DA61DB69C1
:100C3C0003F080530193019B012500E00025284B14
:100C4C001B6813F4807F13D1254A136843F4807317
:100C5C001360FFF7D9FD064605E0FFF7D5FD801BB5
:100C6C00642800F2C9801E4B1B6813F4807FF4D0FB
:100C7C00E368012B05D1174A136A43F00103136291
:100C8C0022E063B903F1804303F504331A6A22F0BE
:100C9C0001021A621A6A22F004021A6214E0052B8D
:100CAC0009D10C4B1A6A42F004021A621A6A42F019
:100CBC0001021A6208E0074B1A6A22F001021A625A
:100CCC001A6A22F004021A62E368CBB1FFF79CFDAA
:100CDC0006460FE0001002400000424280044242EF
:100CEC0000700040FFF790FD801B41F28833984262
:100CFC0000F28480494B1B6A13F0020FF2D00FE014
:100D0C00FFF782FD064606E0FFF77EFD801B41F2F1
:100D1C008833984274D8414B1B6A13F0020FF3D1FD
:100D2C0025B13E4AD36923F08053D361E369002B8C
:100D3C0068D03A4A526802F00C02082A64D0022B9E
:100D4C0037D10022364B1A60FFF75EFD054604E0F2
:100D5C00FFF75AFD401B022858D8304B1B6813F084
:100D6C00007FF5D1236AB3F5803F06D12B494B6840
:100D7C0023F40032A36813434B602848436823F4E0
:100D8C007411236A626A13430B4343600122244BA0
:100D9C001A60FFF739FD044604E0FFF735FD001B30
:100DAC00022835D81D4B1B6813F0007FF5D00020AE
:100DBC0031E000221A4B1A60FFF726FD044604E0CE
:100DCC00FFF722FD001B022824D8144B1B6813F0DC
:100DDC00007FF5D100201EE001201CE003201AE06A
:100DEC00032018E0012016E0032014E0032012E099
:100DFC00032010E003200EE003200CE003200AE0A7
:100E0C00032008E0002006E0012004E0032002E0BB
:100E1C00032000E0032002B070BD00BF00100240B0
:100E2C006000424230B486B0164D02AC2868696846
:100E3C00AA68EB680FC42B8AADF80430124B5B68C0
:100E4C0003F00C02082A19D1C3F3834206A90A4401
:100E5C0012F8102C13F4803F0CD00B4B5B68C3F3CF
:100E6C0040430B4413F8140C084BB3FBF0F000FB9D
:100E7C0002F004E0064800FB02F000E0034806B074
:100E8C0030BC7047442A00080010024000127A005F
:100E9C0000093D0070B55C4B1B6803F007038B42E7
:100EAC000BD2594A136823F007030B4313601368E2
:100EBC0003F00703994240F09780036813F0020F88
:100ECC0006D0524C636823F0F002836813436360CE
:100EDC000D460446036813F0010F4DD04268012AF9
:100EEC0005D14A4B1B6813F4003F0DD17EE0022A5A
:100EFC0005D1464B1B6813F0007F05D178E0434BBE
:100F0C001B6813F0020F75D040494B6823F00303A4
:100F1C0013434B60FFF778FC06466368012B0ED138
:100F2C0006E0FFF771FC801B41F28833984263D8CE
:100F3C00364B5B6803F00C03042BF2D11CE0022B44
:100F4C0015D106E0FFF760FC801B41F28833984214
:100F5C0054D82E4B5B6803F00C03082BF2D10BE03A
:100F6C00FFF752FC801B41F28833984248D8274B3C
:100F7C005B6813F00C0FF3D1234B1B6803F00703D2
:100F8C009D420AD2204A136823F007032B431360B7
:100F9C00136803F007039D4234D1236813F0040F48
:100FAC0006D01A494B6823F4E062E36813434B60A4
:100FBC00236813F0080F07D0144A536823F46053C6
:100FCC00216943EAC1035360FFF72CFF0F4B5B68A9
:100FDC00C3F303130E4AD35CD8400E4B18600F209A
:100FEC00FFF7E2FB002070BD012070BD012070BD39
:100FFC00012070BD012070BD032070BD032070BDA9
:10100C00032070BD012070BD002002400010024082
:10101C00F82A000800000020014B1868704700BF38
:10102C000000002008B5FFF7F7FF044B5B68C3F323
:10103C000223034AD35CD84008BD00BF0010024015
:10104C00082B000808B5FFF7E7FF044B5B68C3F3F8
:10105C00C223034AD35CD84008BD00BF0010024035
:10106C00082B00080268D36823F49073D3600268DD
:10107C00536923F001035361202380F83A30704701
:10108C0090F83930DBB2212B2BD18368B3F5805F1C
:10109C000FD1036A02681B88C3F30803536003690A
:1010AC001BB9036A0233036209E0036A013303626A
:1010BC0005E00268036A591C01621B785360C38CFB
:1010CC009BB2013B9BB2C3846BB90268D36823F01B
:1010DC008003D3600268D36843F04003D3600020E0
:1010EC007047022070470020704700BF2DE9F8437D
:1010FC00814601680B6923F44052C36813430B61AA
:10110C00816803691943436919430068C26822F472
:10111C00B05323F00C030B43C360D9F800104B6998
:10112C0023F44072D9F8183013434B61D9F80050AE
:10113C005B4B9D4259D1FFF785FF00EB800000EB24
:10114C008000D9F80440A400B0FBF4F4554EA6FB83
:10115C00043464092401FFF775FF00EB800000EBF9
:10116C008000D9F804309B00B0FBF3F7FFF76AFF5F
:10117C0000EB800000EB8000D9F804309B00B0FB42
:10118C00F3F3A6FB03235B094FF0640808FB13730E
:10119C001B013233A6FB03235B0903F0F0031C4451
:1011AC00FFF750FF00EB800000EB8000D9F8043013
:1011BC009B00B0FBF3F7FFF745FF00EB800000EB63
:1011CC008000D9F804309B00B0FBF3F3A6FB03239B
:1011DC005B0908FB13731B013233A6FB0323C3F318
:1011EC0043131C44AC60BDE8F883FFF71BFF00EB16
:1011FC00800000EB8000D9F80440A400B0FBF4F4AC
:10120C00284EA6FB043464092401FFF70BFF00EB06
:10121C00800000EB8000D9F804309B00B0FBF3F7A2
:10122C00FFF700FF00EB800000EB8000D9F80430E2
:10123C009B00B0FBF3F3A6FB03235B094FF06408A0
:10124C0008FB13731B013233A6FB03235B0903F06A
:10125C00F0031C44FFF7E6FE00EB800000EB80007F
:10126C00D9F804309B00B0FBF3F7FFF7DBFE00EB83
:10127C00800000EB8000D9F804309B00B0FBF3F346
:10128C00A6FB03235B0908FB13731B013233A6FB7C
:10129C000323C3F343131C44AC60BDE8F88300BFC5
:1012AC00003801401F85EB512DE9F04105460F46F2
:1012BC0016469846069C1EE0B4F1FF3F1BD02CB19D
:1012CC00FFF7A2FAC8EB0000844214D22A68D36854
:1012DC0023F4D073D3602A68536923F0010353615C
:1012EC00202385F8393085F83A30002385F83830DA
:1012FC000320BDE8F0812B681B6837EA03030CBFA1
:10130C0001230023B342D7D00020BDE8F08100BFF9
:10131C0068B310B5044690F8393013F0FF0F04D1C0
:10132C00002380F83830FFF77FF8242384F8393015
:10133C002268D36823F40053D3602046FFF7D6FE0F
:10134C002268136923F4904313612268536923F0D4
:10135C002A0353612268D36843F40053D3600020FE
:10136C00E063202384F8393084F83A3010BD012032
:10137C00704700BF2DE9F04182B01E4690F839301D
:10138C00DBB2202B56D104460D469046002953D093
:10139C00002A53D090F83830012B51D0012380F81B
:1013AC0038300023C363212380F83930FFF72CFA3F
:1013BC000746A4F82480A4F8268027E0E38C9BB28F
:1013CC00013B9BB2E384A368B3F5805F12D1009616
:1013DC003B46002280212046FFF766FF90BB226827
:1013EC002B88C3F30803536023690BB902350DE056
:1013FC0001350BE000963B46002280212046FFF78A
:10140C0053FF08BB23682A785A600135E38C9BB2E2
:10141C00002BD3D100963B46002240212046FFF7FB
:10142C0043FF034690B9202284F83920002284F827
:10143C0038200CE002230AE0012308E0012306E037
:10144C00022304E0032302E0032300E003231846F5
:10145C0002B0BDE8F08100BF90F83A30DBB2202B2F
:10146C0020D109B312B390F83830012B20D081620F
:10147C008285C2850023C363222280F83A2080F83B
:10148C0038300168CA6842F48072CA6001684A69DF
:10149C0042F001024A610168CA6842F02002CA6047
:1014AC001846704702207047012070470120704792
:1014BC0002207047704700BF08B50168CB6823F065
:1014CC004003CB60202380F83930FFF7F3FF002076
:1014DC0008BD00BF08B590F83A30DBB2222B44D1DE
:1014EC008368B3F5805F13D1826A036943B90368DB
:1014FC005B68C3F308031380836A0233836218E0CA
:10150C0003685B68DBB21380836A0133836210E08B
:10151C00036933B9836A5A1C8262026852681A7072
:10152C0007E0826A531C836203685B6803F07F03E5
:10153C001370C38D9BB2013B9BB2C385BBB90268D0
:10154C00D36823F02003D3600268D36823F480733C
:10155C00D3600268536923F001035361202380F8A0
:10156C003A30FEF7ABFF002008BD022008BD00207A
:10157C0008BD00BF704700BF10B504460268136871
:10158C00D168526913F00F0009D113F0200F06D067
:10159C0011F0200F03D02046FFF79CFF10BD002850
:1015AC0062D012F0010202D111F4907F5CD013F0E2
:1015BC00010F06D011F4807F03D0E06B40F00100E6
:1015CC00E06313F0040F04D01AB1E06B40F002009A
:1015DC00E06313F0020F04D01AB1E06B40F004008A
:1015EC00E06313F0080F04D01AB1E26B42F008026A
:1015FC00E263E26B002A4AD013F0200F05D011F001
:10160C00200F02D02046FFF765FF23685B6903F0CB
:10161C004003E26B12F0080F00D1FBB12046FFF73C
:10162C0021FD23685A6912F0400F13D05A6922F039
:10163C0040025A61636B4BB1154A5A63606BFFF7FA
:10164C0067F820B3606B436B984710BD2046FFF7DB
:10165C0091FF10BD2046FFF78DFF10BD2046FFF710
:10166C0089FF0023E36310BD13F0800F06D011F047
:10167C00800F03D02046FFF703FD10BD13F0400F81
:10168C0005D011F0400F02D02046FFF715FF10BD1A
:10169C00A116000808B5406A0023C385C384FFF770
:1016AC0069FF08BD90F8393090F83A00184370473C
:1016BC0070B582B00023019390F82430012B69D0CF
:1016CC000446012380F8243000F0F6FA0546002881
:1016DC005BD1A36A23F4885323F0020343F0020383
:1016EC00A3622E4B1E68022000F01EFCB6FBF0F02D
:1016FC004000019002E0019B013B0193019B002BF8
:10170C00F9D1204600F01CFA2268936843F00803D4
:10171C009360FFF779F806460FE0FFF775F8801B2A
:10172C000A280AD9A36A23F0120343F01003A36218
:10173C00002384F8243001202DE023689A6812F0ED
:10174C00080FEAD19A6842F004029A60FFF75CF83D
:10175C0006460FE0FFF758F8801B0A280AD9A36A3F
:10176C0023F0120343F01003A362002384F8243007
:10177C00012010E023689B6813F0040FEAD1A36AE0
:10178C0023F0030343F00103A362002384F8243005
:10179C00284600E0022002B070BD00BF000000200F
:1017AC00074AD36823F4E0631B041B0C000200F40B
:1017BC00E060184340F0BF6040F40030D0607047E8
:1017CC0000ED00E030B4164BDB68C3F30223C3F129
:1017DC000704042C28BF04241D1D062D01D9DD1E71
:1017EC0000E00025012303FA04F4013C2140A94048
:1017FC00AB40013B1A400A43002806DA00F00F0008
:10180C001201D2B2074B1A5407E01201D2B200F106
:10181C00604000F5614080F8002330BC704700BF89
:10182C0000ED00E014ED00E0420900F01F00012380
:10183C0003FA00F0014B43F82200704700E100E08E
:10184C000138B0F1807F0AD2064B5860F021064A6D
:10185C0082F823100020986007221A60704701203C
:10186C00704700BF10E000E000ED00E0042805D157
:10187C00054A136843F0040313607047024A136867
:10188C0023F004031360704710E000E0F0B583B060
:10189C0005460C4600230193FEF7B6FF2B689A68A9
:1018AC0012F4807F08D0AB6A43F02003AB620023B4
:1018BC0085F82430012097E006465A6812F4807FA0
:1018CC001CD1DB6A13F4700F12D017E0B4F1FF3F98
:1018DC000ED024B1FEF798FF801B844208D2AB6A6D
:1018EC0043F00403AB62002385F8243003207BE033
:1018FC002B681B6813F0020FE8D051E03B4B1F68BC
:10190C00022000F011FBB7FBF0F72B681969384A7D
:10191C0011420ED1D96802F15C42114209D1196908
:10192C00344A114218D1DA68334B1A4216D02920A6
:10193C001BE019692F4A114204D1D96802F16E4299
:10194C0011420DD019692D4A0A405AB9DA682B4B4D
:10195C0013404BB1FC2008E0292006E0142004E0E1
:10196C00542002E0FC2000E0542007FB00F714E0B8
:10197C00B4F1FF3F0ED024B1FEF746FF801B84422A
:10198C0008D2AB6A43F00403AB62002385F8243021
:10199C00032029E0019B01330193019B9F42E7D86F
:1019AC002B686FF012021A60AB6A43F40073AB62DF
:1019BC002B689B6803F46023B3F5602F0FD1EB68A1
:1019CC007BB9AB6A23F48073AB62AB6A13F4805FB0
:1019DC0009D1AB6A43F00103AB62002004E00020A4
:1019EC0002E0002000E0002003B0F0BD0000002069
:1019FC0024499224922449129224490049922400A9
:101A0C000368D86C704700BF70B483B00023019397
:101A1C0090F82430012B00F08880012380F82430CA
:101A2C004B68062B0ED80668756B03EB8303053BDE
:101A3C001F249C4025EA04040A6802FA03F323439A
:101A4C0073631EE00C2B0ED805682A6B03EB830323
:101A5C00233B1F249C4022EA04040A6802FA03F385
:101A6C0023432B630DE00568EA6A03EB8303413BD8
:101A7C001F249C4022EA04040A6802FA03F323435D
:101A8C00EB620B68092B0ED90668F56803EB430370
:101A9C001E3B07249C4025EA04048A6802FA03F3DF
:101AAC002343F3600CE00668356903EB430307241A
:101ABC009C4025EA04048A6802FA03F32343336149
:101ACC000B68103B012B26D803681A4A93421CD191
:101ADC009A6812F4000F20D19A6842F400029A60BE
:101AEC000B68102B1BD1144B1B68144AA2FB03234D
:101AFC009B0C03EB83035A00019202E0019B013B18
:101B0C000193019B002BF9D10AE0836A43F0200377
:101B1C008362012304E0002302E0002300E00023A1
:101B2C00002280F82420184600E0022003B070BC8C
:101B3C00704700BF002401400000002083DE1B43DF
:101B4C0030B583B00023019303689A6812F0010F3B
:101B5C002FD19A6842F001029A60174B1B68174A02
:101B6C00A2FB03239B0C019302E0019B013B01931D
:101B7C00019B002BF9D10446FEF746FE054611E009
:101B8C00FEF742FE401B02280CD9A36A43F0100357
:101B9C00A362E36A43F00103E362002384F8243078
:101BAC00012007E023689B6813F0010FE8D00020A8
:101BBC0000E0002003B030BD0000002083DE1B439A
:101BCC0090F82430012B71D010B50446012380F815
:101BDC002430FFF7B5FF0346002863D1A26A22F434
:101BEC00407222F0010242F48072A26222683049F3
:101BFC008A4205D1A1F58061496811F4702F0ED18C
:101C0C00A16A21F48011A162516811F4806F1CD07B
:101C1C00A16A21F4405141F48051A16215E0A16AFE
:101C2C0041F48011A16223498A4203D001F58061FD
:101C3C008A420AD11F49496811F4806F05D0A16A04
:101C4C0021F4405141F48051A162A16A11F4805FEA
:101C5C0004D0E16A21F00601E16201E00021E162B9
:101C6C00002184F824106FF0020111602268916841
:101C7C0001F46021B1F5602F0ED10D498A4205D1D6
:101C8C00A1F58061496811F4702F05D1916841F478
:101C9C00A0019160184610BD916841F480119160CB
:101CAC00184610BD002284F8242010BD0220704775
:101CBC00002801400024014038B503689A6812F0EE
:101CCC00010F1ED004469A6822F001029A60FEF7BA
:101CDC009BFD05460EE0FEF797FD401B022809D937
:101CEC00A36A43F01003A362E36A43F00103E362C7
:101CFC00012038BD23689B6813F0010FEBD1002045
:101D0C0038BD002038BD00BF00287DD038B5044652
:101D1C00836A23B9C36280F82430FEF745FC204661
:101D2C00FFF7CAFFA36A13F0100F67D1002865D123
:101D3C00A36A23F4885323F0020343F00203A36243
:101D4C006268E3691343E16843EA4103A268B2F5B0
:101D5C00807F04D0012A05D14FF4807503E04FF445
:101D6C00807500E000256269012A0FD131B9A269A2
:101D7C00013A45EA423242F4006507E0A26A42F0B9
:101D8C002002A262E26A42F00102E26221684A6821
:101D9C0022F469422A434A6021688D681B4A2A4012
:101DAC001A438A60A268B2F5807F01D0012A03D160
:101DBC002269013A110500E000212568EA6A22F443
:101DCC0070020A43EA6222689168114A0A409342FF
:101DDC0008D10023E362A36A23F0030343F0010359
:101DEC00A36238BDA36A23F0120343F01003A3626D
:101DFC00E36A43F00103E362012038BDA36A43F0B8
:101E0C001003A362012038BD01207047FDF7E1FFEC
:101E1C00FE0E1FFF70B582B00446036813F0010F6D
:101E2C005CD03E4BDB6913F0805F0BD13B4BDA6926
:101E3C0042F08052DA61DB6903F080530193019B1D
:101E4C00012600E00026364B1B6813F4807F12D16C
:101E5C00334A136843F480731360FEF7D5FC0546D0
:101E6C0004E0FEF7D1FC401B64284FD82C4B1B68B8
:101E7C0013F4807FF5D0294B1B6A13F4407321D0E7
:101E8C00626802F4407293421CD0244A136A23F411
:101E9C004070244901250D6000250D60106213F07F
:101EAC00010F0FD0FEF7B0FC054606E0FEF7ACFCC8
:101EBC00401B41F2883398422AD8184B1B6A13F006
:101ECC00020FF3D015490B6A23F440726368134375
:101EDC000B621EB1CB6923F08053CB61236813F0E6
:101EEC00020F06D00D494B6823F44042A3681343FC
:101EFC004B60236813F0100F0CD008494B6823F487
:101F0C008002E36813434B60002004E0032002E0EE
:101F1C00032000E0002002B070BD00BF00100240A2
:101F2C00007000404004424270B586B006463B4DFE
:101F3C0002AC28686968AA68EB680FC42B8AADF8F4
:101F4C000430022E4ED0102E02D0012E55D12DE091
:101F5C00334B5A681B6813F0807F50D0C2F3834315
:101F6C0006A90B4413F8103C12F480320ED02C4905
:101F7C004968C1F3404106A8014411F8140C4AB158
:101F8C00284AB2FBF0F000FB03F004E0264800FB0B
:101F9C0003F000E00020224B5B6813F4800F3AD171
:101FAC004000224BA3FB0030400834E01C4B1B6A62
:101FBC0040F202321A40B2F5817F22D003F4407312
:101FCC00B3F5007F04D1164A526A12F0020F1BD1EE
:101FDC00B3F5407F1BD1124B1B6813F4003F18D193
:101FEC00002018E0FFF72EF80D4B5B68C3F381332C
:101FFC0001335B00B0FBF3F00DE000200BE00020A0
:10200C0009E04FF4004006E049F6404003E00020B0
:10201C0001E04FF2244006B070BD00BF582A000802
:10202C000010024000127A0000093D00ABAAAAAAD7
:10203C00002103E00B4B5B58435004310A480B4B17
:10204C0042189A42F6D30A4A02E0002342F8043BB3
:10205C00084B9A42F9D3FEF735FB00F00FF8FEF768
:10206C0019F970477C2B0008000000206800002044
:10207C006800002054020020FEE700000E4B70B5F3
:10208C001E460E4C0025E41AA410A54204D056F8A6
:10209C00253098470135F8E700F0C2FC084B094C95
:1020AC001E46E41AA4100025A54204D056F825308B
:1020BC0098470135F8E770BD742B0008742B0008A5
:1020CC00742B0008782B000803460244934202D07C
:1020DC0003F8011BFAE7704770B50E46054618B1B8
:1020EC0083690BB900F00CFAAB69AC6813B92846DC
:1020FC0000F006FA224B9C4201D16C6808E0214B9F
:10210C009C4201D1AC6803E01F4B9C4208BFEC68B9
:10211C00A3891B0701D523693BB92146284600F04A
:10212C0091F810B14FF0FF3070BD013EA36816F866
:10213C00011F013BA36091B1002B04DAA269934209
:10214C0006DB0A2904D023685A1C22601970EDE7BB
:10215C002246284600F022F80130E7D1E2E7002BB6
:10216C0008DA22460A21284600F018F80130D9D0A6
:10217C000A2070BD23680A205A1C2260187070BD9A
:10218C00142B0008342B0008542B0008024B01467A
:10219C001868FFF7A1BF00BF64000020F8B50F4618
:1021AC001446054618B183690BB900F0A9F9224B06
:1021BC009C4201D16C6808E0204B9C4201D1AC6878
:1021CC0003E01F4B9C4208BFEC68A369A360A38982
:1021DC001A0709D523693BB123682069FEB2181A86
:1021EC00636998420FDB08E02146284600F02AF884
:1021FC000028F1D04FF0FF361BE02146284600F0B6
:10220C0015F90028F6D1A3680130013BA3602368BF
:10221C005A1C22601F706369984204D0A389DB07A3
:10222C0007D50A2E05D12146284600F0FFF80028D4
:10223C00E0D13046F8BD00BF142B0008342B000849
:10224C00542B0008324B70B51D6806460C4625B160
:10225C00AB6913B9284600F053F92E4B9C4201D1BF
:10226C006C6808E02C4B9C4201D1AC6803E02B4B12
:10227C009C4208BFEC68B4F90C309AB215071DD417
:10228C00D00602D4092232603AE0510712D5616BB4
:10229C0041B104F14403994202D0304600F01AFADD
:1022AC0000236363A38923F02403A38100236360C9
:1022BC0023692360A38943F00803A38123694BB9E5
:1022CC00A38903F42073B3F5007F03D02146304675
:1022DC0000F0C4F9A28912F0010305D00023A36019
:1022EC0063695B42A36103E0920758BF6369A36013
:1022FC0023695BB9B4F90C3003F0800080B230B1C3
:10230C0043F04003A3814FF0FF3070BD002070BD3F
:10231C0064000020142B0008342B0008542B0008F8
:10232C008A892DE9F041054610070C4659D44B68B3
:10233C00002B02DC0B6C002B17DDE66AAEB102F44D
:10234C008052002392B22F682B600AB1606D15E0A9
:10235C00216A01232846B047411C0FD12B686BB171
:10236C001D2B01D0162B03D12F600020BDE8F0816E
:10237C00A38943F04003A381BDE8F081A3895A07E8
:10238C0005D56368C01A636B0BB1236CC01A0023AC
:10239C000246E66A216A2846B047431CA38906D147
:1023AC0029681D2939D8204ACA40D60735D50022BC
:1023BC0062602269D904226004D5421C01D12B68C9
:1023CC0003B96065616B2F600029CED004F1440322
:1023DC00994202D0284600F07DF900206063BDE8E8
:1023EC00F0810F69002FC0D093070E680CBF4B69AA
:1023FC000023C7EB06080F608B6002E00744C0EBBC
:10240C000808B8F1000FB0DD43463A46216A284669
:10241C00A66AB0470028F1DCA38943F04003A381EE
:10242C004FF0FF30BDE8F0810100402038B50B695A
:10243C0005460C46DBB118B183690BB900F060F8A6
:10244C000C4B9C4201D16C6808E00B4B9C4201D1B7
:10245C00AC6803E0094B9C4208BFEC68B4F90C3043
:10246C002BB121462846BDE83840FFF759BF002064
:10247C0038BD00BF142B0008342B0008542B000867
:10248C00014900F0A9B800BF3924000810B5044672
:10249C00002303604360836081814366C2810361D2
:1024AC0043618361194608225C30FFF70DFE054B32
:1024BC0024626362044BA362044BE362044B236308
:1024CC0010BD00BF5528000877280008AF28000869
:1024DC00D328000870B568234D1E5D430E4605F1E8
:1024EC00740100F043F9044640B1002180E8420039
:1024FC000C30A06005F16802FFF7E6FD204670BDC8
:10250C00836910B5044633BB8364C3640365124B03
:10251C00124A1B688262984204BF0123836100F057
:10252C001FF86060204600F01BF8A060204600F009
:10253C0017F80022E06004216068FFF7A7FF012272
:10254C000921A068FFF7A2FF02221221E068FFF721
:10255C009DFF0123A36110BD102B00088D240008E2
:10256C00F8B51C4B07461E68B36913B93046FFF724
:10257C00C7FF4836B4687368013B04D4B4F90C50F7
:10258C007DB16834F8E733680BB13668F2E70421A3
:10259C003846FFF79FFF30600028F6D10C233B60D4
:1025AC00F8BD4FF6FF73E3810123A38165662560B7
:1025BC00A560656025616561A5610822294604F165
:1025CC005C00FFF781FD6563A563A564E5642046A7
:1025DC00F8BD00BF102B00082DE9F8438046894652
:1025EC0000F14804002694B1A5686768013F0CD43B
:1025FC00AB89012B07D9B5F90E30013303D029462D
:10260C004046C84706436835F0E72468EBE7304698
:10261C00BDE8F88370B50E46B1F90E1090B00029E4
:10262C0014461D4606DA00232B60B3891A060ED514
:10263C0040230EE001AA00F06DF90028F3DB029AAA
:10264C0002F47042A2F500535A425A412A604FF4E8
:10265C0080630020236010B070BD00008B8973B5BF
:10266C009E0705460C4610D401AB6A46FFF7D2FF15
:10267C0000990646284600F079F868B9B4F90C3090
:10268C009A0522D443F00203A38104F1470323608B
:10269C0023610123636118E00D4BAB62A3892060B9
:1026AC0043F08003A381009B20616361019B4BB1CC
:1026BC00B4F90E10284600F03FF918B1A38943F085
:1026CC000103A381A0893043A08102B070BD00BF7B
:1026DC008D24000838B50546002944D051F8043C37
:1026EC000C1F002BB8BFE41800F048F91E4A136801
:1026FC00114613B96360146030E0A3420DD922680F
:10270C00A018834201BF18685B68121822606360CE
:10271C000C6023E0A24203D813465A68002AF9D170
:10272C0018681918A1420BD121680144581882422B
:10273C00196013D110685268014419605A600DE099
:10274C0002D90C232B6009E021686018824201BF7A
:10275C00106852680918216062605C602846BDE808
:10276C00384000F00CB938BD9000002070B5CD1C7D
:10277C0025F0030508350C2D38BF0C25002D064619
:10278C0001DBA94202D90C23336046E000F0F6F8D5
:10279C00234B1C681A462146A1B10B685B1B0ED457
:1027AC000B2B03D90B60CC18CD501EE08C420BBF09
:1027BC0063684B681360636018BF0C4615E00C46E9
:1027CC004968E9E7174C23681BB9304600F02CF830
:1027DC0020602946304600F027F8431C18D0C41C52
:1027EC0024F00304A0420DD12560304600F0C7F858
:1027FC0004F10B00231D20F00700C31A0ED05A421F
:10280C00E25070BD211A304600F00EF80130EBD1C9
:10281C000C233360304600F0B2F8002070BD00BFCE
:10282C00900000208C00002038B5064C0023054693
:10283C000846236000F0DEF8431C02D1236803B184
:10284C002B6038BD5002002010B50C46B1F90E10AB
:10285C0000F096F80028ABBF636DA3891B1823F416
:10286C008053ACBF6365A38110BD2DE9F0411F46B9
:10287C008B890546DB050C46164605D5022300223E
:10288C00B1F90E1000F068F8A389324623F4805396
:10289C00A381B4F90E103B462846BDE8F04100F088
:1028AC0017B810B50C46B1F90E1000F055F8431CD2
:1028BC00A38915BF606523F4805343F48053A3812F
:1028CC0018BFA38110BDB1F90E1000F013B80000B1
:1028DC0038B5074C054608461146002222601A46B8
:1028EC0000F096F8431C02D1236803B12B6038BD6D
:1028FC005002002038B5064C0023054608462360DC
:10290C0000F050F8431C02D1236803B12B6038BD92
:10291C005002002038B5074C0023054608461146E6
:10292C00236000F047F8431C02D1236803B12B60ED
:10293C0038BD00BF5002002038B5064C00230546B8
:10294C000846236000F03EF8431C02D1236803B113
:10295C002B6038BD5002002038B5074C05460846A0
:10296C001146002222601A4600F034F8431C02D1B2
:10297C00236803B12B6038BD5002002070477047AC
:10298C0038B5074C054608461146002222601A4607
:10299C0000F028F8431C02D1236803B12B6038BD2A
:1029AC0050020020024B58221A604FF0FF30704743
:1029BC0050020020024B58221A604FF0FF30704733
:1029CC0050020020024B58221A600020704700BFB2
:1029DC0050020020024B58221A604FF0FF30704713
:1029EC0050020020024B58221A604FF0FF30704703
:1029FC0050020020044A05491368002B08BF0B46FF
:102A0C0018441060184670479400002054020020AF
:102A1C00024B58221A604FF0FF30704750020020D2
:102A2C00F8B500BFF8BC08BC9E467047F8B500BFAF
:082A3C00F8BC08BC9E4670477F
:102A440002030405060708090A0B0C0D0E0F1010EB
:102A54000102000002030405060708090A0B0C0D15
:102A64000E0F1010010200000D0AE682A8E58F91F6
:102A7400E98081E79A84E6B688E681AFE4B8BA3A99
:102A84000D0000000D0A0D000D0A414C49454E543D
:102A9400454B204D696E6953544D3332E5BC80E596
:102AA4008F91E69DBF20E4B8B2E58FA3E5AE9EE921
:102AB400AA8C0D00E6ADA3E782B9E58E9FE5AD9043
:102AC40040414C49454E54454B0D0A0D0A0D00003A
:102AD400E8AFB7E8BE93E585A5E695B0E68DAE2CE4
:102AE400E4BBA5E59B9EE8BDA6E994AEE7BB93E6EF
:102AF4009D9F0D000000000000000000010203047F
:102B04000607080900000000010203040400002075
:102B140000000000000000000000000000000000B1
:102B240000000000000000000000000000000000A1
:102B34000000000000000000000000000000000091
:102B44000000000000000000000000000000000081
:102B54000000000000000000000000000000000071
:102B64000000000000000000000000000000000061
:042B74003101000823
:042B78000D01000843
:102B7C0000A24A0400000000142B0008342B0008AB
:102B8C00542B0008000000000000000000000000B2
:102B9C000000000000000000000000000000000029
:102BAC000000000000000000000000000000000019
:102BBC000000000000000000000000000000000009
:102BCC0000000000000000000000000000000000F9
:082BDC000000000004000020CD
:040000050800203D92
:00000001FF
